{
  "abi": [
    {
      "inputs": [
        {
          "internalType": "address",
          "name": "_dyad",
          "type": "address"
        },
        {
          "internalType": "address",
          "name": "_oracle",
          "type": "address"
        },
        {
          "internalType": "uint256",
          "name": "_maxSupply",
          "type": "uint256"
        },
        {
          "internalType": "uint256",
          "name": "_minPriceChangeBetweenSync",
          "type": "uint256"
        },
        {
          "internalType": "uint256",
          "name": "_minTimeBetweenSync",
          "type": "uint256"
        },
        {
          "internalType": "int256",
          "name": "_minMintDyadDeposit",
          "type": "int256"
        },
        {
          "internalType": "address[]",
          "name": "_insiders",
          "type": "address[]"
        }
      ],
      "stateMutability": "nonpayable",
      "type": "constructor"
    },
    {
      "inputs": [
        {
          "internalType": "uint256",
          "name": "id",
          "type": "uint256"
        },
        {
          "internalType": "uint256",
          "name": "syncedBlock",
          "type": "uint256"
        }
      ],
      "name": "AlreadyClaimed",
      "type": "error"
    },
    {
      "inputs": [
        {
          "internalType": "uint256",
          "name": "id",
          "type": "uint256"
        },
        {
          "internalType": "uint256",
          "name": "syncedBlock",
          "type": "uint256"
        }
      ],
      "name": "AlreadySniped",
      "type": "error"
    },
    {
      "inputs": [
        {
          "internalType": "uint256",
          "name": "blockNumber",
          "type": "uint256"
        }
      ],
      "name": "CannotDepositAndWithdrawInSameBlock",
      "type": "error"
    },
    {
      "inputs": [
        {
          "internalType": "uint256",
          "name": "cr",
          "type": "uint256"
        }
      ],
      "name": "CrTooLow",
      "type": "error"
    },
    {
      "inputs": [
        {
          "internalType": "uint256",
          "name": "id",
          "type": "uint256"
        }
      ],
      "name": "DNftDoesNotExist",
      "type": "error"
    },
    {
      "inputs": [
        {
          "internalType": "uint256",
          "name": "id",
          "type": "uint256"
        }
      ],
      "name": "DepositIsNegative",
      "type": "error"
    },
    {
      "inputs": [],
      "name": "DyadTotalSupplyZero",
      "type": "error"
    },
    {
      "inputs": [
        {
          "internalType": "uint256",
          "name": "averageTVL",
          "type": "uint256"
        }
      ],
      "name": "ExceedsAverageTVL",
      "type": "error"
    },
    {
      "inputs": [
        {
          "internalType": "int256",
          "name": "deposit",
          "type": "int256"
        }
      ],
      "name": "ExceedsDepositBalance",
      "type": "error"
    },
    {
      "inputs": [
        {
          "internalType": "uint256",
          "name": "amount",
          "type": "uint256"
        }
      ],
      "name": "ExceedsWithdrawalBalance",
      "type": "error"
    },
    {
      "inputs": [
        {
          "internalType": "address",
          "name": "to",
          "type": "address"
        },
        {
          "internalType": "uint256",
          "name": "amount",
          "type": "uint256"
        }
      ],
      "name": "FailedEthTransfer",
      "type": "error"
    },
    {
      "inputs": [
        {
          "internalType": "uint256",
          "name": "id",
          "type": "uint256"
        }
      ],
      "name": "IsActive",
      "type": "error"
    },
    {
      "inputs": [
        {
          "internalType": "uint256",
          "name": "id",
          "type": "uint256"
        }
      ],
      "name": "IsInactive",
      "type": "error"
    },
    {
      "inputs": [
        {
          "internalType": "uint256",
          "name": "id",
          "type": "uint256"
        },
        {
          "internalType": "enum DNft.Permission",
          "name": "permission",
          "type": "uint8"
        }
      ],
      "name": "MissingPermission",
      "type": "error"
    },
    {
      "inputs": [
        {
          "internalType": "int256",
          "name": "amount",
          "type": "int256"
        }
      ],
      "name": "NotEnoughToCoverDepositMinimum",
      "type": "error"
    },
    {
      "inputs": [
        {
          "internalType": "int256",
          "name": "amount",
          "type": "int256"
        }
      ],
      "name": "NotEnoughToCoverNegativeDeposit",
      "type": "error"
    },
    {
      "inputs": [
        {
          "internalType": "uint256",
          "name": "id",
          "type": "uint256"
        }
      ],
      "name": "NotLiquidatable",
      "type": "error"
    },
    {
      "inputs": [
        {
          "internalType": "uint256",
          "name": "id",
          "type": "uint256"
        }
      ],
      "name": "NotNFTOwner",
      "type": "error"
    },
    {
      "inputs": [
        {
          "internalType": "int256",
          "name": "priceChange",
          "type": "int256"
        }
      ],
      "name": "PriceChangeTooSmall",
      "type": "error"
    },
    {
      "inputs": [],
      "name": "ReachedMaxSupply",
      "type": "error"
    },
    {
      "inputs": [],
      "name": "SyncTooSoon",
      "type": "error"
    },
    {
      "inputs": [
        {
          "internalType": "uint256",
          "name": "id",
          "type": "uint256"
        }
      ],
      "name": "WithdrawalsNotZero",
      "type": "error"
    },
    {
      "anonymous": false,
      "inputs": [
        {
          "indexed": false,
          "internalType": "uint256",
          "name": "id",
          "type": "uint256"
        }
      ],
      "name": "Activated",
      "type": "event"
    },
    {
      "anonymous": false,
      "inputs": [
        {
          "indexed": true,
          "internalType": "address",
          "name": "owner",
          "type": "address"
        },
        {
          "indexed": true,
          "internalType": "address",
          "name": "approved",
          "type": "address"
        },
        {
          "indexed": true,
          "internalType": "uint256",
          "name": "tokenId",
          "type": "uint256"
        }
      ],
      "name": "Approval",
      "type": "event"
    },
    {
      "anonymous": false,
      "inputs": [
        {
          "indexed": true,
          "internalType": "address",
          "name": "owner",
          "type": "address"
        },
        {
          "indexed": true,
          "internalType": "address",
          "name": "operator",
          "type": "address"
        },
        {
          "indexed": false,
          "internalType": "bool",
          "name": "approved",
          "type": "bool"
        }
      ],
      "name": "ApprovalForAll",
      "type": "event"
    },
    {
      "anonymous": false,
      "inputs": [
        {
          "indexed": true,
          "internalType": "uint256",
          "name": "id",
          "type": "uint256"
        },
        {
          "indexed": false,
          "internalType": "int256",
          "name": "share",
          "type": "int256"
        }
      ],
      "name": "Claimed",
      "type": "event"
    },
    {
      "anonymous": false,
      "inputs": [
        {
          "indexed": false,
          "internalType": "uint256",
          "name": "id",
          "type": "uint256"
        }
      ],
      "name": "Deactivated",
      "type": "event"
    },
    {
      "anonymous": false,
      "inputs": [
        {
          "indexed": true,
          "internalType": "uint256",
          "name": "id",
          "type": "uint256"
        },
        {
          "indexed": false,
          "internalType": "uint256",
          "name": "amount",
          "type": "uint256"
        }
      ],
      "name": "Deposited",
      "type": "event"
    },
    {
      "anonymous": false,
      "inputs": [
        {
          "indexed": true,
          "internalType": "uint256",
          "name": "id",
          "type": "uint256"
        },
        {
          "indexed": false,
          "internalType": "int256",
          "name": "amount",
          "type": "int256"
        }
      ],
      "name": "Exchanged",
      "type": "event"
    },
    {
      "anonymous": false,
      "inputs": [
        {
          "indexed": true,
          "internalType": "address",
          "name": "to",
          "type": "address"
        },
        {
          "indexed": true,
          "internalType": "uint256",
          "name": "id",
          "type": "uint256"
        }
      ],
      "name": "Liquidated",
      "type": "event"
    },
    {
      "anonymous": false,
      "inputs": [
        {
          "indexed": true,
          "internalType": "address",
          "name": "to",
          "type": "address"
        },
        {
          "indexed": true,
          "internalType": "uint256",
          "name": "id",
          "type": "uint256"
        }
      ],
      "name": "Minted",
      "type": "event"
    },
    {
      "anonymous": false,
      "inputs": [
        {
          "indexed": false,
          "internalType": "uint256",
          "name": "tokenId",
          "type": "uint256"
        },
        {
          "components": [
            {
              "internalType": "address",
              "name": "operator",
              "type": "address"
            },
            {
              "internalType": "enum DNft.Permission[]",
              "name": "permissions",
              "type": "uint8[]"
            }
          ],
          "indexed": false,
          "internalType": "struct DNft.PermissionSet[]",
          "name": "permissions",
          "type": "tuple[]"
        }
      ],
      "name": "Modified",
      "type": "event"
    },
    {
      "anonymous": false,
      "inputs": [
        {
          "indexed": true,
          "internalType": "uint256",
          "name": "from",
          "type": "uint256"
        },
        {
          "indexed": true,
          "internalType": "uint256",
          "name": "to",
          "type": "uint256"
        },
        {
          "indexed": false,
          "internalType": "int256",
          "name": "amount",
          "type": "int256"
        }
      ],
      "name": "Moved",
      "type": "event"
    },
    {
      "anonymous": false,
      "inputs": [
        {
          "indexed": true,
          "internalType": "address",
          "name": "to",
          "type": "address"
        },
        {
          "indexed": true,
          "internalType": "uint256",
          "name": "id",
          "type": "uint256"
        },
        {
          "indexed": false,
          "internalType": "uint256",
          "name": "amount",
          "type": "uint256"
        }
      ],
      "name": "Redeemed",
      "type": "event"
    },
    {
      "anonymous": false,
      "inputs": [
        {
          "indexed": true,
          "internalType": "uint256",
          "name": "from",
          "type": "uint256"
        },
        {
          "indexed": true,
          "internalType": "uint256",
          "name": "to",
          "type": "uint256"
        },
        {
          "indexed": false,
          "internalType": "int256",
          "name": "share",
          "type": "int256"
        }
      ],
      "name": "Sniped",
      "type": "event"
    },
    {
      "anonymous": false,
      "inputs": [
        {
          "indexed": false,
          "internalType": "uint256",
          "name": "id",
          "type": "uint256"
        }
      ],
      "name": "Synced",
      "type": "event"
    },
    {
      "anonymous": false,
      "inputs": [
        {
          "indexed": true,
          "internalType": "address",
          "name": "from",
          "type": "address"
        },
        {
          "indexed": true,
          "internalType": "address",
          "name": "to",
          "type": "address"
        },
        {
          "indexed": true,
          "internalType": "uint256",
          "name": "tokenId",
          "type": "uint256"
        }
      ],
      "name": "Transfer",
      "type": "event"
    },
    {
      "anonymous": false,
      "inputs": [
        {
          "indexed": true,
          "internalType": "uint256",
          "name": "from",
          "type": "uint256"
        },
        {
          "indexed": true,
          "internalType": "address",
          "name": "to",
          "type": "address"
        },
        {
          "indexed": false,
          "internalType": "uint256",
          "name": "amount",
          "type": "uint256"
        }
      ],
      "name": "Withdrawn",
      "type": "event"
    },
    {
      "inputs": [],
      "name": "MAX_SUPPLY",
      "outputs": [
        {
          "internalType": "uint256",
          "name": "",
          "type": "uint256"
        }
      ],
      "stateMutability": "view",
      "type": "function"
    },
    {
      "inputs": [],
      "name": "MIN_COLLATERIZATION_RATIO",
      "outputs": [
        {
          "internalType": "uint256",
          "name": "",
          "type": "uint256"
        }
      ],
      "stateMutability": "view",
      "type": "function"
    },
    {
      "inputs": [],
      "name": "MIN_MINT_DYAD_DEPOSIT",
      "outputs": [
        {
          "internalType": "int256",
          "name": "",
          "type": "int256"
        }
      ],
      "stateMutability": "view",
      "type": "function"
    },
    {
      "inputs": [],
      "name": "MIN_PRICE_CHANGE_BETWEEN_SYNC",
      "outputs": [
        {
          "internalType": "uint256",
          "name": "",
          "type": "uint256"
        }
      ],
      "stateMutability": "view",
      "type": "function"
    },
    {
      "inputs": [],
      "name": "MIN_TIME_BETWEEN_SYNC",
      "outputs": [
        {
          "internalType": "uint256",
          "name": "",
          "type": "uint256"
        }
      ],
      "stateMutability": "view",
      "type": "function"
    },
    {
      "inputs": [],
      "name": "SNIPE_MINT_SHARE_REWARD",
      "outputs": [
        {
          "internalType": "int256",
          "name": "",
          "type": "int256"
        }
      ],
      "stateMutability": "view",
      "type": "function"
    },
    {
      "inputs": [],
      "name": "XP_CLAIM_REWARD",
      "outputs": [
        {
          "internalType": "uint256",
          "name": "",
          "type": "uint256"
        }
      ],
      "stateMutability": "view",
      "type": "function"
    },
    {
      "inputs": [],
      "name": "XP_LIQUIDATION_REWARD",
      "outputs": [
        {
          "internalType": "uint256",
          "name": "",
          "type": "uint256"
        }
      ],
      "stateMutability": "view",
      "type": "function"
    },
    {
      "inputs": [],
      "name": "XP_MINT_REWARD",
      "outputs": [
        {
          "internalType": "uint256",
          "name": "",
          "type": "uint256"
        }
      ],
      "stateMutability": "view",
      "type": "function"
    },
    {
      "inputs": [],
      "name": "XP_NORM_FACTOR",
      "outputs": [
        {
          "internalType": "uint256",
          "name": "",
          "type": "uint256"
        }
      ],
      "stateMutability": "view",
      "type": "function"
    },
    {
      "inputs": [],
      "name": "XP_SNIPE_BURN_REWARD",
      "outputs": [
        {
          "internalType": "uint256",
          "name": "",
          "type": "uint256"
        }
      ],
      "stateMutability": "view",
      "type": "function"
    },
    {
      "inputs": [],
      "name": "XP_SNIPE_MINT_REWARD",
      "outputs": [
        {
          "internalType": "uint256",
          "name": "",
          "type": "uint256"
        }
      ],
      "stateMutability": "view",
      "type": "function"
    },
    {
      "inputs": [],
      "name": "XP_SYNC_REWARD",
      "outputs": [
        {
          "internalType": "uint256",
          "name": "",
          "type": "uint256"
        }
      ],
      "stateMutability": "view",
      "type": "function"
    },
    {
      "inputs": [
        {
          "internalType": "uint256",
          "name": "",
          "type": "uint256"
        }
      ],
      "name": "_idToBlockOfLastDeposit",
      "outputs": [
        {
          "internalType": "uint256",
          "name": "",
          "type": "uint256"
        }
      ],
      "stateMutability": "view",
      "type": "function"
    },
    {
      "inputs": [
        {
          "internalType": "uint256",
          "name": "id",
          "type": "uint256"
        }
      ],
      "name": "activate",
      "outputs": [],
      "stateMutability": "nonpayable",
      "type": "function"
    },
    {
      "inputs": [
        {
          "internalType": "address",
          "name": "to",
          "type": "address"
        },
        {
          "internalType": "uint256",
          "name": "tokenId",
          "type": "uint256"
        }
      ],
      "name": "approve",
      "outputs": [],
      "stateMutability": "nonpayable",
      "type": "function"
    },
    {
      "inputs": [
        {
          "internalType": "address",
          "name": "owner",
          "type": "address"
        }
      ],
      "name": "balanceOf",
      "outputs": [
        {
          "internalType": "uint256",
          "name": "",
          "type": "uint256"
        }
      ],
      "stateMutability": "view",
      "type": "function"
    },
    {
      "inputs": [
        {
          "internalType": "uint256",
          "name": "id",
          "type": "uint256"
        }
      ],
      "name": "claim",
      "outputs": [
        {
          "internalType": "int256",
          "name": "",
          "type": "int256"
        }
      ],
      "stateMutability": "nonpayable",
      "type": "function"
    },
    {
      "inputs": [
        {
          "internalType": "uint256",
          "name": "id",
          "type": "uint256"
        }
      ],
      "name": "deactivate",
      "outputs": [],
      "stateMutability": "nonpayable",
      "type": "function"
    },
    {
      "inputs": [
        {
          "internalType": "uint256",
          "name": "id",
          "type": "uint256"
        },
        {
          "internalType": "uint256",
          "name": "amount",
          "type": "uint256"
        }
      ],
      "name": "deposit",
      "outputs": [],
      "stateMutability": "nonpayable",
      "type": "function"
    },
    {
      "inputs": [],
      "name": "dyad",
      "outputs": [
        {
          "internalType": "contract Dyad",
          "name": "",
          "type": "address"
        }
      ],
      "stateMutability": "view",
      "type": "function"
    },
    {
      "inputs": [],
      "name": "dyadDelta",
      "outputs": [
        {
          "internalType": "int256",
          "name": "",
          "type": "int256"
        }
      ],
      "stateMutability": "view",
      "type": "function"
    },
    {
      "inputs": [
        {
          "internalType": "uint256",
          "name": "id",
          "type": "uint256"
        }
      ],
      "name": "exchange",
      "outputs": [
        {
          "internalType": "int256",
          "name": "",
          "type": "int256"
        }
      ],
      "stateMutability": "payable",
      "type": "function"
    },
    {
      "inputs": [
        {
          "internalType": "uint256",
          "name": "tokenId",
          "type": "uint256"
        }
      ],
      "name": "getApproved",
      "outputs": [
        {
          "internalType": "address",
          "name": "",
          "type": "address"
        }
      ],
      "stateMutability": "view",
      "type": "function"
    },
    {
      "inputs": [
        {
          "internalType": "uint256",
          "name": "_id",
          "type": "uint256"
        },
        {
          "components": [
            {
              "internalType": "address",
              "name": "operator",
              "type": "address"
            },
            {
              "internalType": "enum DNft.Permission[]",
              "name": "permissions",
              "type": "uint8[]"
            }
          ],
          "internalType": "struct DNft.PermissionSet[]",
          "name": "_permissionSets",
          "type": "tuple[]"
        }
      ],
      "name": "grant",
      "outputs": [],
      "stateMutability": "nonpayable",
      "type": "function"
    },
    {
      "inputs": [
        {
          "internalType": "uint256",
          "name": "id",
          "type": "uint256"
        },
        {
          "internalType": "address",
          "name": "operator",
          "type": "address"
        },
        {
          "internalType": "enum DNft.Permission",
          "name": "permission",
          "type": "uint8"
        }
      ],
      "name": "hasPermission",
      "outputs": [
        {
          "internalType": "bool",
          "name": "",
          "type": "bool"
        }
      ],
      "stateMutability": "view",
      "type": "function"
    },
    {
      "inputs": [
        {
          "internalType": "uint256",
          "name": "id",
          "type": "uint256"
        },
        {
          "internalType": "address",
          "name": "operator",
          "type": "address"
        },
        {
          "internalType": "enum DNft.Permission[]",
          "name": "permissions",
          "type": "uint8[]"
        }
      ],
      "name": "hasPermissions",
      "outputs": [
        {
          "internalType": "bool[]",
          "name": "_hasPermissions",
          "type": "bool[]"
        }
      ],
      "stateMutability": "view",
      "type": "function"
    },
    {
      "inputs": [
        {
          "internalType": "uint256",
          "name": "",
          "type": "uint256"
        },
        {
          "internalType": "uint256",
          "name": "",
          "type": "uint256"
        }
      ],
      "name": "idToClaimed",
      "outputs": [
        {
          "internalType": "bool",
          "name": "",
          "type": "bool"
        }
      ],
      "stateMutability": "view",
      "type": "function"
    },
    {
      "inputs": [
        {
          "internalType": "uint256",
          "name": "",
          "type": "uint256"
        }
      ],
      "name": "idToNft",
      "outputs": [
        {
          "internalType": "uint256",
          "name": "xp",
          "type": "uint256"
        },
        {
          "internalType": "int256",
          "name": "deposit",
          "type": "int256"
        },
        {
          "internalType": "uint256",
          "name": "withdrawal",
          "type": "uint256"
        },
        {
          "internalType": "uint256",
          "name": "lastOwnershipChange",
          "type": "uint256"
        },
        {
          "internalType": "bool",
          "name": "isActive",
          "type": "bool"
        }
      ],
      "stateMutability": "view",
      "type": "function"
    },
    {
      "inputs": [
        {
          "internalType": "uint256",
          "name": "",
          "type": "uint256"
        },
        {
          "internalType": "address",
          "name": "",
          "type": "address"
        }
      ],
      "name": "idToNftPermission",
      "outputs": [
        {
          "internalType": "uint8",
          "name": "permissions",
          "type": "uint8"
        },
        {
          "internalType": "uint248",
          "name": "lastUpdated",
          "type": "uint248"
        }
      ],
      "stateMutability": "view",
      "type": "function"
    },
    {
      "inputs": [
        {
          "internalType": "address",
          "name": "owner",
          "type": "address"
        },
        {
          "internalType": "address",
          "name": "operator",
          "type": "address"
        }
      ],
      "name": "isApprovedForAll",
      "outputs": [
        {
          "internalType": "bool",
          "name": "",
          "type": "bool"
        }
      ],
      "stateMutability": "view",
      "type": "function"
    },
    {
      "inputs": [],
      "name": "lastEthPrice",
      "outputs": [
        {
          "internalType": "int256",
          "name": "",
          "type": "int256"
        }
      ],
      "stateMutability": "view",
      "type": "function"
    },
    {
      "inputs": [
        {
          "internalType": "uint256",
          "name": "id",
          "type": "uint256"
        },
        {
          "internalType": "address",
          "name": "to",
          "type": "address"
        }
      ],
      "name": "liquidate",
      "outputs": [],
      "stateMutability": "payable",
      "type": "function"
    },
    {
      "inputs": [],
      "name": "maxXp",
      "outputs": [
        {
          "internalType": "uint256",
          "name": "",
          "type": "uint256"
        }
      ],
      "stateMutability": "view",
      "type": "function"
    },
    {
      "inputs": [
        {
          "internalType": "address",
          "name": "to",
          "type": "address"
        }
      ],
      "name": "mint",
      "outputs": [
        {
          "internalType": "uint256",
          "name": "",
          "type": "uint256"
        }
      ],
      "stateMutability": "payable",
      "type": "function"
    },
    {
      "inputs": [
        {
          "internalType": "uint256",
          "name": "_from",
          "type": "uint256"
        },
        {
          "internalType": "uint256",
          "name": "_to",
          "type": "uint256"
        },
        {
          "internalType": "int256",
          "name": "_amount",
          "type": "int256"
        }
      ],
      "name": "move",
      "outputs": [],
      "stateMutability": "nonpayable",
      "type": "function"
    },
    {
      "inputs": [],
      "name": "name",
      "outputs": [
        {
          "internalType": "string",
          "name": "",
          "type": "string"
        }
      ],
      "stateMutability": "view",
      "type": "function"
    },
    {
      "inputs": [
        {
          "internalType": "uint256",
          "name": "tokenId",
          "type": "uint256"
        }
      ],
      "name": "ownerOf",
      "outputs": [
        {
          "internalType": "address",
          "name": "",
          "type": "address"
        }
      ],
      "stateMutability": "view",
      "type": "function"
    },
    {
      "inputs": [],
      "name": "prevDyadDelta",
      "outputs": [
        {
          "internalType": "int256",
          "name": "",
          "type": "int256"
        }
      ],
      "stateMutability": "view",
      "type": "function"
    },
    {
      "inputs": [],
      "name": "prevSyncedBlock",
      "outputs": [
        {
          "internalType": "uint256",
          "name": "",
          "type": "uint256"
        }
      ],
      "stateMutability": "view",
      "type": "function"
    },
    {
      "inputs": [
        {
          "internalType": "uint256",
          "name": "from",
          "type": "uint256"
        },
        {
          "internalType": "address",
          "name": "to",
          "type": "address"
        },
        {
          "internalType": "uint256",
          "name": "amount",
          "type": "uint256"
        }
      ],
      "name": "redeem",
      "outputs": [
        {
          "internalType": "uint256",
          "name": "",
          "type": "uint256"
        }
      ],
      "stateMutability": "nonpayable",
      "type": "function"
    },
    {
      "inputs": [
        {
          "internalType": "address",
          "name": "from",
          "type": "address"
        },
        {
          "internalType": "address",
          "name": "to",
          "type": "address"
        },
        {
          "internalType": "uint256",
          "name": "tokenId",
          "type": "uint256"
        }
      ],
      "name": "safeTransferFrom",
      "outputs": [],
      "stateMutability": "nonpayable",
      "type": "function"
    },
    {
      "inputs": [
        {
          "internalType": "address",
          "name": "from",
          "type": "address"
        },
        {
          "internalType": "address",
          "name": "to",
          "type": "address"
        },
        {
          "internalType": "uint256",
          "name": "tokenId",
          "type": "uint256"
        },
        {
          "internalType": "bytes",
          "name": "data",
          "type": "bytes"
        }
      ],
      "name": "safeTransferFrom",
      "outputs": [],
      "stateMutability": "nonpayable",
      "type": "function"
    },
    {
      "inputs": [
        {
          "internalType": "address",
          "name": "operator",
          "type": "address"
        },
        {
          "internalType": "bool",
          "name": "approved",
          "type": "bool"
        }
      ],
      "name": "setApprovalForAll",
      "outputs": [],
      "stateMutability": "nonpayable",
      "type": "function"
    },
    {
      "inputs": [
        {
          "internalType": "uint256",
          "name": "_from",
          "type": "uint256"
        },
        {
          "internalType": "uint256",
          "name": "_to",
          "type": "uint256"
        }
      ],
      "name": "snipe",
      "outputs": [
        {
          "internalType": "int256",
          "name": "",
          "type": "int256"
        }
      ],
      "stateMutability": "nonpayable",
      "type": "function"
    },
    {
      "inputs": [
        {
          "internalType": "bytes4",
          "name": "interfaceId",
          "type": "bytes4"
        }
      ],
      "name": "supportsInterface",
      "outputs": [
        {
          "internalType": "bool",
          "name": "",
          "type": "bool"
        }
      ],
      "stateMutability": "view",
      "type": "function"
    },
    {
      "inputs": [],
      "name": "symbol",
      "outputs": [
        {
          "internalType": "string",
          "name": "",
          "type": "string"
        }
      ],
      "stateMutability": "view",
      "type": "function"
    },
    {
      "inputs": [
        {
          "internalType": "uint256",
          "name": "id",
          "type": "uint256"
        }
      ],
      "name": "sync",
      "outputs": [
        {
          "internalType": "int256",
          "name": "",
          "type": "int256"
        }
      ],
      "stateMutability": "nonpayable",
      "type": "function"
    },
    {
      "inputs": [],
      "name": "syncedBlock",
      "outputs": [
        {
          "internalType": "uint256",
          "name": "",
          "type": "uint256"
        }
      ],
      "stateMutability": "view",
      "type": "function"
    },
    {
      "inputs": [],
      "name": "timeOfLastSync",
      "outputs": [
        {
          "internalType": "uint256",
          "name": "",
          "type": "uint256"
        }
      ],
      "stateMutability": "view",
      "type": "function"
    },
    {
      "inputs": [
        {
          "internalType": "uint256",
          "name": "index",
          "type": "uint256"
        }
      ],
      "name": "tokenByIndex",
      "outputs": [
        {
          "internalType": "uint256",
          "name": "",
          "type": "uint256"
        }
      ],
      "stateMutability": "view",
      "type": "function"
    },
    {
      "inputs": [
        {
          "internalType": "address",
          "name": "owner",
          "type": "address"
        },
        {
          "internalType": "uint256",
          "name": "index",
          "type": "uint256"
        }
      ],
      "name": "tokenOfOwnerByIndex",
      "outputs": [
        {
          "internalType": "uint256",
          "name": "",
          "type": "uint256"
        }
      ],
      "stateMutability": "view",
      "type": "function"
    },
    {
      "inputs": [
        {
          "internalType": "uint256",
          "name": "tokenId",
          "type": "uint256"
        }
      ],
      "name": "tokenURI",
      "outputs": [
        {
          "internalType": "string",
          "name": "",
          "type": "string"
        }
      ],
      "stateMutability": "view",
      "type": "function"
    },
    {
      "inputs": [],
      "name": "totalSupply",
      "outputs": [
        {
          "internalType": "uint256",
          "name": "",
          "type": "uint256"
        }
      ],
      "stateMutability": "view",
      "type": "function"
    },
    {
      "inputs": [],
      "name": "totalXp",
      "outputs": [
        {
          "internalType": "uint256",
          "name": "",
          "type": "uint256"
        }
      ],
      "stateMutability": "view",
      "type": "function"
    },
    {
      "inputs": [
        {
          "internalType": "address",
          "name": "from",
          "type": "address"
        },
        {
          "internalType": "address",
          "name": "to",
          "type": "address"
        },
        {
          "internalType": "uint256",
          "name": "tokenId",
          "type": "uint256"
        }
      ],
      "name": "transferFrom",
      "outputs": [],
      "stateMutability": "nonpayable",
      "type": "function"
    },
    {
      "inputs": [
        {
          "internalType": "uint256",
          "name": "from",
          "type": "uint256"
        },
        {
          "internalType": "address",
          "name": "to",
          "type": "address"
        },
        {
          "internalType": "uint256",
          "name": "amount",
          "type": "uint256"
        }
      ],
      "name": "withdraw",
      "outputs": [],
      "stateMutability": "nonpayable",
      "type": "function"
    }
  ],
  "bytecode": {
    "object": "0x6101006040526001600a553480156200001757600080fd5b506040516200535b3803806200535b8339810160408190526200003a9162000995565b60405180604001604052806008815260200167111e58590813919560c21b815250604051806040016040528060048152602001631913919560e21b815250816000908162000089919062000b47565b50600162000098828262000b47565b5050601780546001600160a01b03808b166001600160a01b03199283161790925560188054928a169290911691909117905550608085905260a084905260c083905260e0829052620000e962000199565b600b5560005b81518110156200018b576000806200012984848151811062000115576200011562000c13565b60200260200101516200021460201b60201c565b6000918252601360209081526040928390208251815590820151600182015591810151600283015560608101516003830155608001516004909101805460ff191691151591909117905550819050620001828162000c3f565b915050620000ef565b505050505050505062000d10565b60185460408051633fabe5a360e21b815290516000926001600160a01b03169163feaf968c9160048083019260a09291908290030181865afa158015620001e4573d6000803e3d6000fd5b505050506040513d601f19601f820116820180604052508101906200020a919062000c73565b5091949350505050565b60006200024b6040518060a00160405280600081526020016000815260200160008152602001600081526020016000151581525090565b60006200025760085490565b905060805181106200027c5760405163794bb39b60e01b815260040160405180910390fd5b6200028884826200030b565b620002bd6040518060a00160405280600081526020016000815260200160008152602001600081526020016000151581525090565b620002cb816103e8620004b0565b60405182906001600160a01b038716907f30385c845b448a36257a6a1716e6ad2e1bc2cbe333cde1e69fe849ad6511adfe90600090a39094909350915050565b6001600160a01b038216620003675760405162461bcd60e51b815260206004820181905260248201527f4552433732313a206d696e7420746f20746865207a65726f206164647265737360448201526064015b60405180910390fd5b6000818152600260205260409020546001600160a01b031615620003ce5760405162461bcd60e51b815260206004820152601c60248201527f4552433732313a20746f6b656e20616c7265616479206d696e7465640000000060448201526064016200035e565b620003de600083836001620004f6565b6000818152600260205260409020546001600160a01b031615620004455760405162461bcd60e51b815260206004820152601c60248201527f4552433732313a20746f6b656e20616c7265616479206d696e7465640000000060448201526064016200035e565b6001600160a01b038216600081815260036020908152604080832080546001019055848352600290915280822080546001600160a01b0319168417905551839291907fddf252ad1be2c89b69c2b068fc378daa952ba7f163c4a11628f55a4df523b3ef908290a45050565b8082600001818151620004c4919062000cc8565b90525060115482511115620004d95781516011555b8060106000828254620004ed919062000cc8565b90915550505050565b6200050f848484846200052f60201b620029d41760201c565b506000908152601360205260409020436003909101555050565b50505050565b62000548848484846200069360201b62002b141760201c565b6001811115620005c15760405162461bcd60e51b815260206004820152603560248201527f455243373231456e756d657261626c653a20636f6e736563757469766520747260448201527f616e7366657273206e6f7420737570706f72746564000000000000000000000060648201526084016200035e565b816001600160a01b03851662000620576200061a81600880546000838152600960205260408120829055600182018355919091527ff3f7a9fe364faab93b216da50a3214154f22a0a2b415b23a84c8169e8b636ee30155565b62000646565b836001600160a01b0316856001600160a01b031614620006465762000646858262000722565b6001600160a01b03841662000666576200066081620007cf565b6200068c565b846001600160a01b0316846001600160a01b0316146200068c576200068c848262000889565b5050505050565b600181111562000529576001600160a01b03841615620006dd576001600160a01b03841660009081526003602052604081208054839290620006d790849062000ce4565b90915550505b6001600160a01b0383161562000529576001600160a01b038316600090815260036020526040812080548392906200071790849062000cc8565b909155505050505050565b600060016200073c84620008da60201b620016ec1760201c565b62000748919062000ce4565b6000838152600760205260409020549091508082146200079c576001600160a01b03841660009081526006602090815260408083208584528252808320548484528184208190558352600790915290208190555b5060009182526007602090815260408084208490556001600160a01b039094168352600681528383209183525290812055565b600854600090620007e39060019062000ce4565b600083815260096020526040812054600880549394509092849081106200080e576200080e62000c13565b90600052602060002001549050806008838154811062000832576200083262000c13565b60009182526020808320909101929092558281526009909152604080822084905585825281205560088054806200086d576200086d62000cfa565b6001900381819060005260206000200160009055905550505050565b6000620008a183620008da60201b620016ec1760201c565b6001600160a01b039093166000908152600660209081526040808320868452825280832085905593825260079052919091209190915550565b60006001600160a01b038216620009465760405162461bcd60e51b815260206004820152602960248201527f4552433732313a2061646472657373207a65726f206973206e6f7420612076616044820152683634b21037bbb732b960b91b60648201526084016200035e565b506001600160a01b031660009081526003602052604090205490565b80516001600160a01b03811681146200097a57600080fd5b919050565b634e487b7160e01b600052604160045260246000fd5b600080600080600080600060e0888a031215620009b157600080fd5b620009bc8862000962565b96506020620009cd818a0162000962565b60408a015160608b015160808c015160a08d015160c08e0151949b50929950909750955093506001600160401b038082111562000a0957600080fd5b818b0191508b601f83011262000a1e57600080fd5b81518181111562000a335762000a336200097f565b8060051b604051601f19603f8301168101818110858211171562000a5b5762000a5b6200097f565b60405291825284820192508381018501918e83111562000a7a57600080fd5b938501935b8285101562000aa35762000a938562000962565b8452938501939285019262000a7f565b80965050505050505092959891949750929550565b600181811c9082168062000acd57607f821691505b60208210810362000aee57634e487b7160e01b600052602260045260246000fd5b50919050565b601f82111562000b4257600081815260208120601f850160051c8101602086101562000b1d5750805b601f850160051c820191505b8181101562000b3e5782815560010162000b29565b5050505b505050565b81516001600160401b0381111562000b635762000b636200097f565b62000b7b8162000b74845462000ab8565b8462000af4565b602080601f83116001811462000bb3576000841562000b9a5750858301515b600019600386901b1c1916600185901b17855562000b3e565b600085815260208120601f198616915b8281101562000be45788860151825594840194600190910190840162000bc3565b508582101562000c035787850151600019600388901b60f8161c191681555b5050505050600190811b01905550565b634e487b7160e01b600052603260045260246000fd5b634e487b7160e01b600052601160045260246000fd5b60006001820162000c545762000c5462000c29565b5060010190565b80516001600160501b03811681146200097a57600080fd5b600080600080600060a0868803121562000c8c57600080fd5b62000c978662000c5b565b945060208601519350604086015192506060860151915062000cbc6080870162000c5b565b90509295509295909350565b8082018082111562000cde5762000cde62000c29565b92915050565b8181038181111562000cde5762000cde62000c29565b634e487b7160e01b600052603160045260246000fd5b60805160a05160c05160e0516145f562000d6660003960008181610669015261163d0152600081816104790152611b98015260008181610ad00152611c1c01526000818161058d015261313d01526145f56000f3fe6080604052600436106103765760003560e01c80635fae8b3d116101d1578063b88d4fde11610102578063decb84dc116100a0578063e64466911161006f578063e644669114610aa8578063e8101c1b14610abe578063e985e9c514610af2578063febb16df14610b3b57600080fd5b8063decb84dc14610a25578063e2bbb15814610a3b578063e63697c814610a5b578063e643ebac14610a7b57600080fd5b8063c9e3d730116100dc578063c9e3d730146109b4578063d4912507146109cf578063d8780161146109e5578063de1eecb314610a0557600080fd5b8063b88d4fde1461095a578063c784cbe61461097a578063c87b56dd1461099457600080fd5b8063959526191161016f578063aadfdcc211610149578063aadfdcc2146108e0578063add95a51146108fa578063b1357bf91461091a578063b260c42a1461093a57600080fd5b8063959526191461088b57806395d89b41146108ab578063a22cb465146108c057600080fd5b80637038fc4e116101ab5780637038fc4e1461081557806370a082311461082b578063823abfd91461084b578063916b9bef1461086b57600080fd5b80635fae8b3d146107cf5780636352211e146107e25780636a6278421461080257600080fd5b806332cb6b0c116102ab578063483afb2d116102495780634f6ccce7116102235780634f6ccce7146107535780635355655914610773578063551e123b146107865780635982dc29146107b357600080fd5b8063483afb2d146106c15780634b2ec8ee146105605780634ddc77c81461073857600080fd5b8063379607f511610285578063379607f514610637578063397b802414610657578063413217b71461068b57806342842e0e146106a157600080fd5b806332cb6b0c1461057b57806335f2faf0146105af57806336416455146105cb57600080fd5b8063174c67e11161031857806323b872dd116102f257806323b872dd1461050a578063265f63a11461052a5780632f745c59146105405780633295787f1461056057600080fd5b8063174c67e1146104bf57806318160ddd146104d55780631849c73a146104ea57600080fd5b8063081812fc11610354578063081812fc1461040d578063095ea7b3146104455780630ba4ae301461046757806310d4f96d146104a957600080fd5b8063019e242e1461037b57806301ffc9a7146103cb57806306fdde03146103eb575b600080fd5b34801561038757600080fd5b506103b6610396366004613ae8565b601560209081526000928352604080842090915290825290205460ff1681565b60405190151581526020015b60405180910390f35b3480156103d757600080fd5b506103b66103e6366004613b20565b610b51565b3480156103f757600080fd5b50610400610b7c565b6040516103c29190613b8d565b34801561041957600080fd5b5061042d610428366004613ba0565b610c0e565b6040516001600160a01b0390911681526020016103c2565b34801561045157600080fd5b50610465610460366004613bd5565b610c35565b005b34801561047357600080fd5b5061049b7f000000000000000000000000000000000000000000000000000000000000000081565b6040519081526020016103c2565b3480156104b557600080fd5b5061049b60105481565b3480156104cb57600080fd5b5061049b60125481565b3480156104e157600080fd5b5060085461049b565b3480156104f657600080fd5b50610465610505366004613bff565b610d4f565b34801561051657600080fd5b50610465610525366004613c2b565b610e37565b34801561053657600080fd5b5061049b600c5481565b34801561054c57600080fd5b5061049b61055b366004613bd5565b610e68565b34801561056c57600080fd5b5061049b66016bcc41e9000081565b34801561058757600080fd5b5061049b7f000000000000000000000000000000000000000000000000000000000000000081565b3480156105bb57600080fd5b5061049b6714d1120d7b16000081565b3480156105d757600080fd5b506106166105e6366004613c67565b601460209081526000928352604080842090915290825290205460ff81169061010090046001600160f81b031682565b6040805160ff90931683526001600160f81b039091166020830152016103c2565b34801561064357600080fd5b5061049b610652366004613ba0565b610efe565b34801561066357600080fd5b5061049b7f000000000000000000000000000000000000000000000000000000000000000081565b34801561069757600080fd5b5061049b60115481565b3480156106ad57600080fd5b506104656106bc366004613c2b565b611128565b3480156106cd57600080fd5b5061070e6106dc366004613ba0565b601360205260009081526040902080546001820154600283015460038401546004909401549293919290919060ff1685565b6040805195865260208601949094529284019190915260608301521515608082015260a0016103c2565b34801561074457600080fd5b5061049b660110d9316ec00081565b34801561075f57600080fd5b5061049b61076e366004613ba0565b611143565b61049b610781366004613ba0565b6111d6565b34801561079257600080fd5b506107a66107a1366004613cd8565b6112c9565b6040516103c29190613d32565b3480156107bf57600080fd5b5061049b670853a0d2313c000081565b6104656107dd366004613c67565b611459565b3480156107ee57600080fd5b5061042d6107fd366004613ba0565b6115cd565b61049b610810366004613d78565b61162d565b34801561082157600080fd5b5061049b600b5481565b34801561083757600080fd5b5061049b610846366004613d78565b6116ec565b34801561085757600080fd5b506103b6610866366004613da2565b611772565b34801561087757600080fd5b50610465610886366004613ba0565b611829565b34801561089757600080fd5b506104656108a6366004613dde565b611954565b3480156108b757600080fd5b50610400611aac565b3480156108cc57600080fd5b506104656108db366004613e38565b611abb565b3480156108ec57600080fd5b5061049b65b5e620f4800081565b34801561090657600080fd5b5060175461042d906001600160a01b031681565b34801561092657600080fd5b5061049b610935366004613ba0565b611aca565b34801561094657600080fd5b50610465610955366004613ba0565b611d85565b34801561096657600080fd5b50610465610975366004613edf565b611e3e565b34801561098657600080fd5b5061049b655af3107a400081565b3480156109a057600080fd5b506104006109af366004613ba0565b611e76565b3480156109c057600080fd5b5061049b662386f26fc1000081565b3480156109db57600080fd5b5061049b600e5481565b3480156109f157600080fd5b5061049b610a00366004613f9f565b611ee9565b348015610a1157600080fd5b5061049b610a20366004613ae8565b612132565b348015610a3157600080fd5b5061049b600d5481565b348015610a4757600080fd5b50610465610a56366004613ae8565b6124e5565b348015610a6757600080fd5b50610465610a76366004613f9f565b6126ef565b348015610a8757600080fd5b5061049b610a96366004613ba0565b60166020526000908152604090205481565b348015610ab457600080fd5b5061049b600f5481565b348015610aca57600080fd5b5061049b7f000000000000000000000000000000000000000000000000000000000000000081565b348015610afe57600080fd5b506103b6610b0d366004613fc4565b6001600160a01b03918216600090815260056020908152604080832093909416825291909152205460ff1690565b348015610b4757600080fd5b5061049b6103e881565b60006001600160e01b0319821663780e9d6360e01b1480610b765750610b7682612b9c565b92915050565b606060008054610b8b90613fee565b80601f0160208091040260200160405190810160405280929190818152602001828054610bb790613fee565b8015610c045780601f10610bd957610100808354040283529160200191610c04565b820191906000526020600020905b815481529060010190602001808311610be757829003601f168201915b5050505050905090565b6000610c1982612bec565b506000908152600460205260409020546001600160a01b031690565b6000610c40826115cd565b9050806001600160a01b0316836001600160a01b031603610cb25760405162461bcd60e51b815260206004820152602160248201527f4552433732313a20617070726f76616c20746f2063757272656e74206f776e656044820152603960f91b60648201526084015b60405180910390fd5b336001600160a01b0382161480610cce5750610cce8133610b0d565b610d405760405162461bcd60e51b815260206004820152603d60248201527f4552433732313a20617070726f76652063616c6c6572206973206e6f7420746f60448201527f6b656e206f776e6572206f7220617070726f76656420666f7220616c6c0000006064820152608401610ca9565b610d4a8383612c4e565b505050565b826004610d5d823383611772565b610d7e57818160405163acb8d02d60e01b8152600401610ca992919061405a565b60008313610d8b57600080fd5b60008581526013602052604090206001810154841315610dc657806001015460405163689b65e960e11b8152600401610ca991815260200190565b60018082018054869003905560008681526013602052604081209091018054869290610df3908490614084565b9091555050604051848152859087907fecf7a2a9b87e864721b005a74148c7e41af15fa580f04024f55a5902b32e556e9060200160405180910390a3505050505050565b610e413382612cbc565b610e5d5760405162461bcd60e51b8152600401610ca9906140a4565b610d4a838383612d3a565b6000610e73836116ec565b8210610ed55760405162461bcd60e51b815260206004820152602b60248201527f455243373231456e756d657261626c653a206f776e657220696e646578206f7560448201526a74206f6620626f756e647360a81b6064820152608401610ca9565b506001600160a01b03919091166000908152600660209081526040808320938352929052205490565b6000816007610f0e823383611772565b610f2f57818160405163acb8d02d60e01b8152600401610ca992919061405a565b600084815260136020526040812060040154859160ff90911615159003610f6c57604051632080e3d360e01b815260048101829052602401610ca9565b6000858152601560209081526040808320600e54845290915290205460ff1615610fb757600e54604051636bd4745f60e01b8152610ca9918791600401918252602082015260400190565b6000858152601560209081526040808320600e5484528252808320805460ff1916600190811790915588845260138352818420825160a0810184528154815291810154938201939093526002830154918101919091526003820154606082015260049091015460ff16151560808201529080611038655af3107a4000612eab565b90506000600c54131561105c57611055600c548460000151612f40565b9150611081565b600061106e600c548560000151612f85565b909350905061107d81836140f1565b9150505b81836020018181516110939190614084565b9052506110a08382613065565b600088815260136020908152604091829020855181558582015160018201558583015160028201556060860151600382015560808601516004909101805460ff1916911515919091179055905183815289917f80d2137c01c20957d2640ac104067c27bdfb6f6405d354a50e4e0663dbfd3406910160405180910390a2509695505050505050565b610d4a83838360405180602001604052806000815250611e3e565b600061114e60085490565b82106111b15760405162461bcd60e51b815260206004820152602c60248201527f455243373231456e756d657261626c653a20676c6f62616c20696e646578206f60448201526b7574206f6620626f756e647360a01b6064820152608401610ca9565b600882815481106111c4576111c4614104565b90600052602060002001549050919050565b60008160026111e6823383611772565b61120757818160405163acb8d02d60e01b8152600401610ca992919061405a565b600084815260136020526040812060040154859160ff9091161515900361124457604051632080e3d360e01b815260048101829052602401610ca9565b600085815260166020526040812043905561125e346130a6565b9050806013600088815260200190815260200160002060010160008282546112869190614084565b909155505060405181815286907ff99ef896dbec5c9f8ed65fcd703b977e36f533d2dbe0f54b055724102c66935b9060200160405180910390a295945050505050565b60608167ffffffffffffffff8111156112e4576112e4613e6f565b60405190808252806020026020018201604052801561130d578160200160208202803683370190505b509050836001600160a01b0316611323866115cd565b6001600160a01b0316036113785760005b8281101561137257600182828151811061135057611350614104565b911515602092830291909101909101528061136a8161411a565b915050611334565b50611451565b60008581526014602090815260408083206001600160a01b0388168452825280832081518083018352905460ff8116825261010090046001600160f81b03168184018190528985526013909352922060030154101561144f5760005b8381101561144d576114118585838181106113f1576113f1614104565b90506020020160208101906114069190614133565b835160ff16906130cb565b1561143b57600183828151811061142a5761142a614104565b911515602092830291909101909101525b806114458161411a565b9150506113d4565b505b505b949350505050565b6000828152601360209081526040808320815160a081018352815481526001820154938101849052600282015492810192909252600381015460608301526004015460ff16151560808201529181126114c857604051634fd4b9f760e01b815260048101859052602401610ca9565b60006114d3346130a6565b90506114e18260001961414e565b81121561150457604051630e874cb160e41b815260048101829052602401610ca9565b61151d8361151866016bcc41e90000612eab565b613065565b808360200181815161152f9190614084565b905250600085815260136020908152604091829020855181559085015160018201559084015160028201556060840151600382015560808401516004909101805460ff1916911515919091179055611590611589866115cd565b8587612d3a565b60405185906001600160a01b038616907fa5ee7a2b0254fce91deed604506790ed7fa072d0b14cba4859c3bc8955b9caac90600090a35050505050565b6000818152600260205260408120546001600160a01b031680610b765760405162461bcd60e51b8152602060048201526018602482015277115490cdcc8c4e881a5b9d985b1a59081d1bdad95b88125160421b6044820152606401610ca9565b600080611639346130a6565b90507f000000000000000000000000000000000000000000000000000000000000000081121561167f57604051633e0432ef60e01b815260048101829052602401610ca9565b60008061168b856130f8565b602081810195865260016080830181815260008581526013909352604092839020845181559751918801919091559082015160028701556060909101516003860155516004909401805460ff19169415159490941790935550909392505050565b60006001600160a01b0382166117565760405162461bcd60e51b815260206004820152602960248201527f4552433732313a2061646472657373207a65726f206973206e6f7420612076616044820152683634b21037bbb732b960b91b6064820152608401610ca9565b506001600160a01b031660009081526003602052604090205490565b6000826001600160a01b0316611787856115cd565b6001600160a01b03160361179d57506001611822565b60008481526014602090815260408083206001600160a01b038716845282529182902082518084019093525460ff81168084526101009091046001600160f81b0316918301919091526117f090846130cb565b801561181e575080602001516001600160f81b03166013600087815260200190815260200160002060030154105b9150505b9392505050565b806001611837823383611772565b61185857818160405163acb8d02d60e01b8152600401610ca992919061405a565b600083815260136020526040812060040154849160ff9091161515900361189557604051632080e3d360e01b815260048101829052602401610ca9565b600084815260136020526040902060020154156118c8576040516339d0e29960e01b815260048101859052602401610ca9565b600084815260136020526040812060010154136118fb57604051632449a18d60e01b815260048101859052602401610ca9565b60008481526013602052604090819020600401805460ff19169055517fed48e4e899b34abded07dd8f092a22585a3fdec7db6b83f3927af165bf04cb1e906119469086815260200190565b60405180910390a150505050565b823361195f826115cd565b6001600160a01b0316146119895760405163d64dfb0160e01b815260048101829052602401610ca9565b4360005b83811015611a695760008585838181106119a9576119a9614104565b90506020028101906119bb919061417e565b6119c49061419e565b90508060200151516000036119fc57600087815260146020908152604080832084516001600160a01b03168452909152812055611a60565b6040518060400160405280611a148360200151613205565b60ff90811682526001600160f81b0380871660209384015260008b815260148452604080822087516001600160a01b031683528552902084519490930151166101000292169190911790555b5060010161198d565b507f5015559e4f379aa0dd2effee572c916b09bb68ed41ad9ab127c8066f052e1643858585604051611a9d93929190614266565b60405180910390a15050505050565b606060018054610b8b90613fee565b611ac6338383613253565b5050565b600081815260136020526040812060040154829060ff1615158203611b0557604051632080e3d360e01b815260048101829052602401610ca9565b601754604080516318160ddd60e01b815290516000926001600160a01b0316916318160ddd9160048083019260209291908290030181865afa158015611b4f573d6000803e3d6000fd5b505050506040513d601f19601f82011682018060405250810190611b739190614376565b905080600003611b9657604051632a8ef6b160e11b815260040160405180910390fd5b7f0000000000000000000000000000000000000000000000000000000000000000601254611bc491906140f1565b421015611be4576040516334490f5560e11b815260040160405180910390fd5b6000611bee613321565b90506000611c0b600b5483611c03919061438f565b600b54613399565b90506000611c18826133bd565b90507f0000000000000000000000000000000000000000000000000000000000000000811015611c5e5760405163e746612160e01b815260048101839052602401610ca9565b42601255600b839055600e8054600f55439055600c54600d55611c89611c83856133d4565b8361343e565b600c55600087815260136020908152604091829020825160a081018452815481526001820154928101929092526002810154928201929092526003820154606082015260049091015460ff1615156080820152611cf981611518611cf48566016bcc41e900006140f1565b612eab565b600088815260136020908152604091829020835181558382015160018201558383015160028201556060840151600382015560808401516004909101805460ff191691151591909117905590518981527fff14d8520387b9b85d2a017dc41ae15db04a22d4c67deac04eb45048631ffa86910160405180910390a1600c54965050505050505b50919050565b806000611d93823383611772565b611db457818160405163acb8d02d60e01b8152600401610ca992919061405a565b600083815260136020526040902060040154839060ff161515600103611df0576040516307e1313160e11b815260048101829052602401610ca9565b60008481526013602052604090819020600401805460ff19166001179055517f3ec796be1be7d03bff3a62b9fa594a60e947c1809bced06d929f145308ae57ce906119469086815260200190565b611e483383612cbc565b611e645760405162461bcd60e51b8152600401610ca9906140a4565b611e7084848484613463565b50505050565b6060611e8182612bec565b6000611e9860408051602081019091526000815290565b90506000815111611eb85760405180602001604052806000815250611822565b80611ec284613496565b604051602001611ed39291906143b6565b6040516020818303038152906040529392505050565b6000600a54600114611f2a5760405162461bcd60e51b815260206004820152600a6024820152695245454e5452414e435960b01b6044820152606401610ca9565b6002600a55836006611f3d823383611772565b611f5e57818160405163acb8d02d60e01b8152600401610ca992919061405a565b600086815260136020526040812060040154879160ff90911615159003611f9b57604051632080e3d360e01b815260048101829052602401610ca9565b60008781526013602052604090206002810154861115611fd157604051630b32a9c760e21b815260048101879052602401610ca9565b6002810180548790039055601754604051632770a7eb60e21b8152336004820152602481018890526001600160a01b0390911690639dc29fac90604401600060405180830381600087803b15801561202857600080fd5b505af115801561203c573d6000803e3d6000fd5b50505050600061205261204d613321565b613529565b612060886305f5e1006143e5565b61206a91906143fc565b90506000886001600160a01b03168260405160006040518083038185875af1925050503d80600081146120b9576040519150601f19603f3d011682016040523d82523d6000602084013e6120be565b606091505b50509050806120e957604051637eaf0ff960e11b815233600482015260248101839052604401610ca9565b6040518881528a9033907ff3a670cd3af7d64b488926880889d08a8585a138ff455227af6737339a1ec2629060200160405180910390a3506001600a5598975050505050505050565b600082815260136020526040812060040154839060ff161515820361216d57604051632080e3d360e01b815260048101829052602401610ca9565b600083815260136020526040812060040154849160ff909116151590036121aa57604051632080e3d360e01b815260048101829052602401610ca9565b6000858152601560209081526040808320600f54845290915290205460ff16156121f557600f54604051630cff449b60e21b8152610ca9918791600401918252602082015260400190565b6001601560008781526020019081526020016000206000600f54815260200190815260200160002060006101000a81548160ff0219169083151502179055506000601360008781526020019081526020016000206040518060a0016040529081600082015481526020016001820154815260200160028201548152602001600382015481526020016004820160009054906101000a900460ff16151515158152505090506000601360008781526020019081526020016000206040518060a0016040529081600082015481526020016001820154815260200160028201548152602001600382015481526020016004820160009054906101000a900460ff1615151515815250509050600080600d5413156123915761231a600d548460000151612f40565b905061233f8161233a670853a0d2313c0000670de0b6b3a764000061438f565b61343e565b836020018181516123509190614084565b90525061236581670853a0d2313c000061343e565b826020018181516123769190614084565b90525061238c8261151865b5e620f48000612eab565b6123df565b60006123a3600d548560000151612f85565b60208601805192945090925083916123bc908390614084565b9052506123c98482613065565b6123dd83611518660110d9316ec000612eab565b505b82601360008a81526020019081526020016000206000820151816000015560208201518160010155604082015181600201556060820151816003015560808201518160040160006101000a81548160ff02191690831515021790555090505081601360008981526020019081526020016000206000820151816000015560208201518160010155604082015181600201556060820151816003015560808201518160040160006101000a81548160ff02191690831515021790555090505086887f0e7d191e2306ac0b4fbf5a2cb60c28ddb5a0507bd6dc06322d0d1ea0925eabd7836040516124d091815260200190565b60405180910390a3945050505b505092915050565b8160036124f3823383611772565b61251457818160405163acb8d02d60e01b8152600401610ca992919061405a565b600084815260136020526040812060040154859160ff9091161515900361255157604051632080e3d360e01b815260048101829052602401610ca9565b600085815260166020908152604080832043905560139091529020600281015485111561259457604051630b32a9c760e21b815260048101869052602401610ca9565b60028101805486900390556125a8856133d4565b8160010160008282546125bb9190614084565b90915550506017546040516323b872dd60e01b8152336004820152306024820152604481018790526000916001600160a01b0316906323b872dd906064016020604051808303816000875af1158015612618573d6000803e3d6000fd5b505050506040513d601f19601f8201168201806040525081019061263c919061441e565b90508061264857600080fd5b601754604051632770a7eb60e21b8152306004820152602481018890526001600160a01b0390911690639dc29fac90604401600060405180830381600087803b15801561269457600080fd5b505af11580156126a8573d6000803e3d6000fd5b50505050867f06da3309189fa49284f335d2c2bcb4cb0b8ad2a59ad92a9bdebeeb8f1ceba511876040516126de91815260200190565b60405180910390a250505050505050565b8260056126fd823383611772565b61271e57818160405163acb8d02d60e01b8152600401610ca992919061405a565b600085815260136020526040812060040154869160ff9091161515900361275b57604051632080e3d360e01b815260048101829052602401610ca9565b60008681526016602052604090205443900361278c5760405163194af33f60e21b8152436004820152602401610ca9565b600086815260136020526040902060018101546127a8866133d4565b13156127cf57806001015460405163689b65e960e11b8152600401610ca991815260200190565b60006127dc61204d613321565b6127ea6305f5e100476143fc565b6127f491906143e5565b9050600061288487601760009054906101000a90046001600160a01b03166001600160a01b03166318160ddd6040518163ffffffff1660e01b8152600401602060405180830381865afa15801561284f573d6000803e3d6000fd5b505050506040513d601f19601f820116820180604052508101906128739190614376565b61287d91906140f1565b839061357b565b90506714d1120d7b1600008110156128b25760405163f51aaf6560e01b815260048101829052602401610ca9565b60006128bd60085490565b6128c790846143fc565b905060008885600201546128db91906140f1565b90508181111561290157604051630dd16eb960e41b815260048101839052602401610ca9565b61290a896133d4565b600186018054919091039055600285018190556017546040516340c10f1960e01b81526001600160a01b038c81166004830152602482018c9052909116906340c10f1990604401600060405180830381600087803b15801561296b57600080fd5b505af115801561297f573d6000803e3d6000fd5b50505050896001600160a01b03168b7fcf7d23a3cbe4e8b36ff82fd1b05b1b17373dc7804b4ebbd6e2356716ef2023728b6040516129bf91815260200190565b60405180910390a35050505050505050505050565b6129e084848484612b14565b6001811115612a4f5760405162461bcd60e51b815260206004820152603560248201527f455243373231456e756d657261626c653a20636f6e7365637574697665207472604482015274185b9cd9995c9cc81b9bdd081cdd5c1c1bdc9d1959605a1b6064820152608401610ca9565b816001600160a01b038516612aab57612aa681600880546000838152600960205260408120829055600182018355919091527ff3f7a9fe364faab93b216da50a3214154f22a0a2b415b23a84c8169e8b636ee30155565b612ace565b836001600160a01b0316856001600160a01b031614612ace57612ace8582613590565b6001600160a01b038416612aea57612ae58161362d565b612b0d565b846001600160a01b0316846001600160a01b031614612b0d57612b0d84826136dc565b5050505050565b6001811115611e70576001600160a01b03841615612b5a576001600160a01b03841660009081526003602052604081208054839290612b5490849061443b565b90915550505b6001600160a01b03831615611e70576001600160a01b03831660009081526003602052604081208054839290612b919084906140f1565b909155505050505050565b60006001600160e01b031982166380ac58cd60e01b1480612bcd57506001600160e01b03198216635b5e139f60e01b145b80610b7657506301ffc9a760e01b6001600160e01b0319831614610b76565b6000818152600260205260409020546001600160a01b0316612c4b5760405162461bcd60e51b8152602060048201526018602482015277115490cdcc8c4e881a5b9d985b1a59081d1bdad95b88125160421b6044820152606401610ca9565b50565b600081815260046020526040902080546001600160a01b0319166001600160a01b0384169081179091558190612c83826115cd565b6001600160a01b03167f8c5be1e5ebec7d5bd14f71427d1e84f3dd0314c0f7b2291e5b200ac8c7c3b92560405160405180910390a45050565b600080612cc8836115cd565b9050806001600160a01b0316846001600160a01b03161480612d0f57506001600160a01b0380821660009081526005602090815260408083209388168352929052205460ff165b806114515750836001600160a01b0316612d2884610c0e565b6001600160a01b031614949350505050565b826001600160a01b0316612d4d826115cd565b6001600160a01b031614612d735760405162461bcd60e51b8152600401610ca99061444e565b6001600160a01b038216612dd55760405162461bcd60e51b8152602060048201526024808201527f4552433732313a207472616e7366657220746f20746865207a65726f206164646044820152637265737360e01b6064820152608401610ca9565b612de28383836001613720565b826001600160a01b0316612df5826115cd565b6001600160a01b031614612e1b5760405162461bcd60e51b8152600401610ca99061444e565b600081815260046020908152604080832080546001600160a01b03199081169091556001600160a01b0387811680865260038552838620805460001901905590871680865283862080546001019055868652600290945282852080549092168417909155905184937fddf252ad1be2c89b69c2b068fc378daa952ba7f163c4a11628f55a4df523b3ef91a4505050565b6000662386f26fc10000612f3683601760009054906101000a90046001600160a01b03166001600160a01b03166318160ddd6040518163ffffffff1660e01b8152600401602060405180830381865afa158015612f0c573d6000803e3d6000fd5b505050506040513d601f19601f82011682018060405250810190612f309190614376565b90613746565b610b7691906143fc565b600080612f586010548461357b90919063ffffffff16565b90506000841215612f7857612f7581670de0b6b3a764000061443b565b90505b6114518461233a836133d4565b6000806000612f9f6011548561357b90919063ffffffff16565b90506000612fb86010548661357b90919063ffffffff16565b90506000612fc6838361357b565b90506000612fdc84670de0b6b3a764000061443b565b9050600061301861301384612ff060085490565b61300290670de0b6b3a76400006143e5565b61300c919061443b565b849061357b565b6133d4565b90506000613026828b61343e565b9050600061303d87613037846133bd565b9061357b565b905081613052670de0b6b3a7640000836143fc565b98509850505050505050505b9250929050565b808260000181815161307791906140f1565b9052506011548251111561308b5781516011555b806010600082825461309d91906140f1565b90915550505050565b60006130b0613321565b6130c16130136305f5e100856143fc565b610b76919061414e565b6000808260078111156130e0576130e0614022565b600160ff9182161b9490941690931615159392505050565b600061312e6040518060a00160405280600081526020016000815260200160008152602001600081526020016000151581525090565b600061313960085490565b90507f0000000000000000000000000000000000000000000000000000000000000000811061317b5760405163794bb39b60e01b815260040160405180910390fd5b613185848261375b565b6131b96040518060a00160405280600081526020016000815260200160008152602001600081526020016000151581525090565b6131c5816103e8613065565b60405182906001600160a01b038716907f30385c845b448a36257a6a1716e6ad2e1bc2cbe333cde1e69fe849ad6511adfe90600090a39094909350915050565b6000805b8251811015611d7f5782818151811061322457613224614104565b6020026020010151600781111561323d5761323d614022565b600160ff9190911681901b929092179101613209565b816001600160a01b0316836001600160a01b0316036132b45760405162461bcd60e51b815260206004820152601960248201527f4552433732313a20617070726f766520746f2063616c6c6572000000000000006044820152606401610ca9565b6001600160a01b03838116600081815260056020908152604080832094871680845294825291829020805460ff191686151590811790915591519182527f17307eab39ab6107e8899845ad3d59bd9653f200f220920489ca2b5937696c31910160405180910390a3505050565b60185460408051633fabe5a360e21b815290516000926001600160a01b03169163feaf968c9160048083019260a09291908290030181865afa15801561336b573d6000803e3d6000fd5b505050506040513d601f19601f8201168201806040525081019061338f91906144ad565b5091949350505050565b670de0b6b3a76400008281029081058314821515166133b757600080fd5b05919050565b6000808212156133d05781600003610b76565b5090565b60006001600160ff1b038211156133d05760405162461bcd60e51b815260206004820152602860248201527f53616665436173743a2076616c756520646f65736e27742066697420696e2061604482015267371034b73a191a9b60c11b6064820152608401610ca9565b818102821583820583141761345257600080fd5b670de0b6b3a7640000900592915050565b61346e848484612d3a565b61347a848484846138f4565b611e705760405162461bcd60e51b8152600401610ca9906144fd565b606060006134a3836139f2565b600101905060008167ffffffffffffffff8111156134c3576134c3613e6f565b6040519080825280601f01601f1916602001820160405280156134ed576020820181803683370190505b5090508181016020015b600019016f181899199a1a9b1b9c1cb0b131b232b360811b600a86061a8153600a85049450846134f757509392505050565b6000808212156133d05760405162461bcd60e51b815260206004820181905260248201527f53616665436173743a2076616c7565206d75737420626520706f7369746976656044820152606401610ca9565b600061182283670de0b6b3a764000084613aca565b6000600161359d846116ec565b6135a7919061443b565b6000838152600760205260409020549091508082146135fa576001600160a01b03841660009081526006602090815260408083208584528252808320548484528184208190558352600790915290208190555b5060009182526007602090815260408084208490556001600160a01b039094168352600681528383209183525290812055565b60085460009061363f9060019061443b565b6000838152600960205260408120546008805493945090928490811061366757613667614104565b90600052602060002001549050806008838154811061368857613688614104565b60009182526020808320909101929092558281526009909152604080822084905585825281205560088054806136c0576136c061454f565b6001900381819060005260206000200160009055905550505050565b60006136e7836116ec565b6001600160a01b039093166000908152600660209081526040808320868452825280832085905593825260079052919091209190915550565b61372c848484846129d4565b506000908152601360205260409020436003909101555050565b60006118228383670de0b6b3a7640000613aca565b6001600160a01b0382166137b15760405162461bcd60e51b815260206004820181905260248201527f4552433732313a206d696e7420746f20746865207a65726f20616464726573736044820152606401610ca9565b6000818152600260205260409020546001600160a01b0316156138165760405162461bcd60e51b815260206004820152601c60248201527f4552433732313a20746f6b656e20616c7265616479206d696e746564000000006044820152606401610ca9565b613824600083836001613720565b6000818152600260205260409020546001600160a01b0316156138895760405162461bcd60e51b815260206004820152601c60248201527f4552433732313a20746f6b656e20616c7265616479206d696e746564000000006044820152606401610ca9565b6001600160a01b038216600081815260036020908152604080832080546001019055848352600290915280822080546001600160a01b0319168417905551839291907fddf252ad1be2c89b69c2b068fc378daa952ba7f163c4a11628f55a4df523b3ef908290a45050565b60006001600160a01b0384163b156139ea57604051630a85bd0160e11b81526001600160a01b0385169063150b7a0290613938903390899088908890600401614565565b6020604051808303816000875af1925050508015613973575060408051601f3d908101601f19168201909252613970918101906145a2565b60015b6139d0573d8080156139a1576040519150601f19603f3d011682016040523d82523d6000602084013e6139a6565b606091505b5080516000036139c85760405162461bcd60e51b8152600401610ca9906144fd565b805181602001fd5b6001600160e01b031916630a85bd0160e11b149050611451565b506001611451565b60008072184f03e93ff9f4daa797ed6e38ed64bf6a1f0160401b8310613a315772184f03e93ff9f4daa797ed6e38ed64bf6a1f0160401b830492506040015b6d04ee2d6d415b85acef81000000008310613a5d576d04ee2d6d415b85acef8100000000830492506020015b662386f26fc100008310613a7b57662386f26fc10000830492506010015b6305f5e1008310613a93576305f5e100830492506008015b6127108310613aa757612710830492506004015b60648310613ab9576064830492506002015b600a8310610b765760010192915050565b6000826000190484118302158202613ae157600080fd5b5091020490565b60008060408385031215613afb57600080fd5b50508035926020909101359150565b6001600160e01b031981168114612c4b57600080fd5b600060208284031215613b3257600080fd5b813561182281613b0a565b60005b83811015613b58578181015183820152602001613b40565b50506000910152565b60008151808452613b79816020860160208601613b3d565b601f01601f19169290920160200192915050565b6020815260006118226020830184613b61565b600060208284031215613bb257600080fd5b5035919050565b80356001600160a01b0381168114613bd057600080fd5b919050565b60008060408385031215613be857600080fd5b613bf183613bb9565b946020939093013593505050565b600080600060608486031215613c1457600080fd5b505081359360208301359350604090920135919050565b600080600060608486031215613c4057600080fd5b613c4984613bb9565b9250613c5760208501613bb9565b9150604084013590509250925092565b60008060408385031215613c7a57600080fd5b82359150613c8a60208401613bb9565b90509250929050565b60008083601f840112613ca557600080fd5b50813567ffffffffffffffff811115613cbd57600080fd5b6020830191508360208260051b850101111561305e57600080fd5b60008060008060608587031215613cee57600080fd5b84359350613cfe60208601613bb9565b9250604085013567ffffffffffffffff811115613d1a57600080fd5b613d2687828801613c93565b95989497509550505050565b6020808252825182820181905260009190848201906040850190845b81811015613d6c578351151583529284019291840191600101613d4e565b50909695505050505050565b600060208284031215613d8a57600080fd5b61182282613bb9565b803560088110613bd057600080fd5b600080600060608486031215613db757600080fd5b83359250613dc760208501613bb9565b9150613dd560408501613d93565b90509250925092565b600080600060408486031215613df357600080fd5b83359250602084013567ffffffffffffffff811115613e1157600080fd5b613e1d86828701613c93565b9497909650939450505050565b8015158114612c4b57600080fd5b60008060408385031215613e4b57600080fd5b613e5483613bb9565b91506020830135613e6481613e2a565b809150509250929050565b634e487b7160e01b600052604160045260246000fd5b6040805190810167ffffffffffffffff81118282101715613ea857613ea8613e6f565b60405290565b604051601f8201601f1916810167ffffffffffffffff81118282101715613ed757613ed7613e6f565b604052919050565b60008060008060808587031215613ef557600080fd5b613efe85613bb9565b93506020613f0d818701613bb9565b935060408601359250606086013567ffffffffffffffff80821115613f3157600080fd5b818801915088601f830112613f4557600080fd5b813581811115613f5757613f57613e6f565b613f69601f8201601f19168501613eae565b91508082528984828501011115613f7f57600080fd5b808484018584013760008482840101525080935050505092959194509250565b600080600060608486031215613fb457600080fd5b83359250613c5760208501613bb9565b60008060408385031215613fd757600080fd5b613fe083613bb9565b9150613c8a60208401613bb9565b600181811c9082168061400257607f821691505b602082108103611d7f57634e487b7160e01b600052602260045260246000fd5b634e487b7160e01b600052602160045260246000fd5b6008811061405657634e487b7160e01b600052602160045260246000fd5b9052565b828152604081016118226020830184614038565b634e487b7160e01b600052601160045260246000fd5b80820182811260008312801582168215821617156124dd576124dd61406e565b6020808252602d908201527f4552433732313a2063616c6c6572206973206e6f7420746f6b656e206f776e6560408201526c1c881bdc88185c1c1c9bdd9959609a1b606082015260800190565b80820180821115610b7657610b7661406e565b634e487b7160e01b600052603260045260246000fd5b60006001820161412c5761412c61406e565b5060010190565b60006020828403121561414557600080fd5b61182282613d93565b80820260008212600160ff1b8414161561416a5761416a61406e565b8181058314821517610b7657610b7661406e565b60008235603e1983360301811261419457600080fd5b9190910192915050565b6000604082360312156141b057600080fd5b6141b8613e85565b6141c183613bb9565b815260208084013567ffffffffffffffff808211156141df57600080fd5b9085019036601f8301126141f257600080fd5b81358181111561420457614204613e6f565b8060051b9150614215848301613eae565b818152918301840191848101903684111561422f57600080fd5b938501935b838510156142545761424585613d93565b82529385019390850190614234565b94860194909452509295945050505050565b8381526040602080830182905282820184905260009190606090818501600587811b8701840189875b8a81101561436557898303605f190185528135368d9003603e190181126142b557600080fd5b8c018389016001600160a01b036142cb83613bb9565b16855287820135601e198336030181126142e457600080fd5b90910187810191903567ffffffffffffffff81111561430257600080fd5b80871b360383131561431357600080fd5b8589018b9052908190526000908986015b818310156143505761433e8161433986613d93565b614038565b92890192600192909201918901614324565b9789019795505050918601915060010161428f565b50909b9a5050505050505050505050565b60006020828403121561438857600080fd5b5051919050565b81810360008312801583831316838312821617156143af576143af61406e565b5092915050565b600083516143c8818460208801613b3d565b8351908301906143dc818360208801613b3d565b01949350505050565b8082028115828204841417610b7657610b7661406e565b60008261441957634e487b7160e01b600052601260045260246000fd5b500490565b60006020828403121561443057600080fd5b815161182281613e2a565b81810381811115610b7657610b7661406e565b60208082526025908201527f4552433732313a207472616e736665722066726f6d20696e636f72726563742060408201526437bbb732b960d91b606082015260800190565b805169ffffffffffffffffffff81168114613bd057600080fd5b600080600080600060a086880312156144c557600080fd5b6144ce86614493565b94506020860151935060408601519250606086015191506144f160808701614493565b90509295509295909350565b60208082526032908201527f4552433732313a207472616e7366657220746f206e6f6e20455243373231526560408201527131b2b4bb32b91034b6b83632b6b2b73a32b960711b606082015260800190565b634e487b7160e01b600052603160045260246000fd5b6001600160a01b038581168252841660208201526040810183905260806060820181905260009061459890830184613b61565b9695505050505050565b6000602082840312156145b457600080fd5b815161182281613b0a56fea26469706673582212208d36c006b91531176744d2d3db0b90f44768bc77f838ab0ed8ff29cfbeb83c1e64736f6c63430008110033",
    "linkReferences": {}
  },
  "methodIdentifiers": {
    "MAX_SUPPLY()": "32cb6b0c",
    "MIN_COLLATERIZATION_RATIO()": "35f2faf0",
    "MIN_MINT_DYAD_DEPOSIT()": "397b8024",
    "MIN_PRICE_CHANGE_BETWEEN_SYNC()": "e8101c1b",
    "MIN_TIME_BETWEEN_SYNC()": "0ba4ae30",
    "SNIPE_MINT_SHARE_REWARD()": "5982dc29",
    "XP_CLAIM_REWARD()": "c784cbe6",
    "XP_LIQUIDATION_REWARD()": "4b2ec8ee",
    "XP_MINT_REWARD()": "febb16df",
    "XP_NORM_FACTOR()": "c9e3d730",
    "XP_SNIPE_BURN_REWARD()": "4ddc77c8",
    "XP_SNIPE_MINT_REWARD()": "aadfdcc2",
    "XP_SYNC_REWARD()": "3295787f",
    "_idToBlockOfLastDeposit(uint256)": "e643ebac",
    "activate(uint256)": "b260c42a",
    "approve(address,uint256)": "095ea7b3",
    "balanceOf(address)": "70a08231",
    "claim(uint256)": "379607f5",
    "deactivate(uint256)": "916b9bef",
    "deposit(uint256,uint256)": "e2bbb158",
    "dyad()": "add95a51",
    "dyadDelta()": "265f63a1",
    "exchange(uint256)": "53556559",
    "getApproved(uint256)": "081812fc",
    "grant(uint256,(address,uint8[])[])": "95952619",
    "hasPermission(uint256,address,uint8)": "823abfd9",
    "hasPermissions(uint256,address,uint8[])": "551e123b",
    "idToClaimed(uint256,uint256)": "019e242e",
    "idToNft(uint256)": "483afb2d",
    "idToNftPermission(uint256,address)": "36416455",
    "isApprovedForAll(address,address)": "e985e9c5",
    "lastEthPrice()": "7038fc4e",
    "liquidate(uint256,address)": "5fae8b3d",
    "maxXp()": "413217b7",
    "mint(address)": "6a627842",
    "move(uint256,uint256,int256)": "1849c73a",
    "name()": "06fdde03",
    "ownerOf(uint256)": "6352211e",
    "prevDyadDelta()": "decb84dc",
    "prevSyncedBlock()": "e6446691",
    "redeem(uint256,address,uint256)": "d8780161",
    "safeTransferFrom(address,address,uint256)": "42842e0e",
    "safeTransferFrom(address,address,uint256,bytes)": "b88d4fde",
    "setApprovalForAll(address,bool)": "a22cb465",
    "snipe(uint256,uint256)": "de1eecb3",
    "supportsInterface(bytes4)": "01ffc9a7",
    "symbol()": "95d89b41",
    "sync(uint256)": "b1357bf9",
    "syncedBlock()": "d4912507",
    "timeOfLastSync()": "174c67e1",
    "tokenByIndex(uint256)": "4f6ccce7",
    "tokenOfOwnerByIndex(address,uint256)": "2f745c59",
    "tokenURI(uint256)": "c87b56dd",
    "totalSupply()": "18160ddd",
    "totalXp()": "10d4f96d",
    "transferFrom(address,address,uint256)": "23b872dd",
    "withdraw(uint256,address,uint256)": "e63697c8"
  },
  "id": 40
}