{
  "abi": [
    {
      "inputs": [
        {
          "internalType": "address",
          "name": "_dyad",
          "type": "address"
        },
        {
          "internalType": "address",
          "name": "_oracle",
          "type": "address"
        },
        {
          "internalType": "uint256",
          "name": "_maxSupply",
          "type": "uint256"
        },
        {
          "internalType": "uint256",
          "name": "_minPriceChangeBetweenSync",
          "type": "uint256"
        },
        {
          "internalType": "uint256",
          "name": "_minTimeBetweenSync",
          "type": "uint256"
        },
        {
          "internalType": "int256",
          "name": "_minMintDyadDeposit",
          "type": "int256"
        },
        {
          "internalType": "address[]",
          "name": "_insiders",
          "type": "address[]"
        }
      ],
      "stateMutability": "nonpayable",
      "type": "constructor"
    },
    {
      "inputs": [
        {
          "internalType": "uint256",
          "name": "id",
          "type": "uint256"
        },
        {
          "internalType": "uint256",
          "name": "syncedBlock",
          "type": "uint256"
        }
      ],
      "name": "AlreadyClaimed",
      "type": "error"
    },
    {
      "inputs": [
        {
          "internalType": "uint256",
          "name": "id",
          "type": "uint256"
        },
        {
          "internalType": "uint256",
          "name": "syncedBlock",
          "type": "uint256"
        }
      ],
      "name": "AlreadySniped",
      "type": "error"
    },
    {
      "inputs": [
        {
          "internalType": "uint256",
          "name": "blockNumber",
          "type": "uint256"
        }
      ],
      "name": "CannotDepositAndWithdrawInSameBlock",
      "type": "error"
    },
    {
      "inputs": [
        {
          "internalType": "uint256",
          "name": "cr",
          "type": "uint256"
        }
      ],
      "name": "CrTooLow",
      "type": "error"
    },
    {
      "inputs": [
        {
          "internalType": "uint256",
          "name": "id",
          "type": "uint256"
        }
      ],
      "name": "DNftDoesNotExist",
      "type": "error"
    },
    {
      "inputs": [
        {
          "internalType": "uint256",
          "name": "id",
          "type": "uint256"
        }
      ],
      "name": "DepositIsNegative",
      "type": "error"
    },
    {
      "inputs": [],
      "name": "DyadTotalSupplyZero",
      "type": "error"
    },
    {
      "inputs": [
        {
          "internalType": "uint256",
          "name": "averageTVL",
          "type": "uint256"
        }
      ],
      "name": "ExceedsAverageTVL",
      "type": "error"
    },
    {
      "inputs": [
        {
          "internalType": "int256",
          "name": "deposit",
          "type": "int256"
        }
      ],
      "name": "ExceedsDepositBalance",
      "type": "error"
    },
    {
      "inputs": [
        {
          "internalType": "uint256",
          "name": "amount",
          "type": "uint256"
        }
      ],
      "name": "ExceedsWithdrawalBalance",
      "type": "error"
    },
    {
      "inputs": [
        {
          "internalType": "address",
          "name": "to",
          "type": "address"
        },
        {
          "internalType": "uint256",
          "name": "amount",
          "type": "uint256"
        }
      ],
      "name": "FailedEthTransfer",
      "type": "error"
    },
    {
      "inputs": [
        {
          "internalType": "uint256",
          "name": "id",
          "type": "uint256"
        }
      ],
      "name": "IsActive",
      "type": "error"
    },
    {
      "inputs": [
        {
          "internalType": "uint256",
          "name": "id",
          "type": "uint256"
        }
      ],
      "name": "IsInactive",
      "type": "error"
    },
    {
      "inputs": [
        {
          "internalType": "uint256",
          "name": "id",
          "type": "uint256"
        },
        {
          "internalType": "enum DNft.Permission",
          "name": "permission",
          "type": "uint8"
        }
      ],
      "name": "MissingPermission",
      "type": "error"
    },
    {
      "inputs": [
        {
          "internalType": "int256",
          "name": "amount",
          "type": "int256"
        }
      ],
      "name": "NotEnoughToCoverDepositMinimum",
      "type": "error"
    },
    {
      "inputs": [
        {
          "internalType": "int256",
          "name": "amount",
          "type": "int256"
        }
      ],
      "name": "NotEnoughToCoverNegativeDeposit",
      "type": "error"
    },
    {
      "inputs": [
        {
          "internalType": "uint256",
          "name": "id",
          "type": "uint256"
        }
      ],
      "name": "NotLiquidatable",
      "type": "error"
    },
    {
      "inputs": [
        {
          "internalType": "uint256",
          "name": "id",
          "type": "uint256"
        }
      ],
      "name": "NotNFTOwner",
      "type": "error"
    },
    {
      "inputs": [
        {
          "internalType": "int256",
          "name": "priceChange",
          "type": "int256"
        }
      ],
      "name": "PriceChangeTooSmall",
      "type": "error"
    },
    {
      "inputs": [],
      "name": "ReachedMaxSupply",
      "type": "error"
    },
    {
      "inputs": [],
      "name": "SyncTooSoon",
      "type": "error"
    },
    {
      "inputs": [
        {
          "internalType": "uint256",
          "name": "id",
          "type": "uint256"
        }
      ],
      "name": "WithdrawalsNotZero",
      "type": "error"
    },
    {
      "anonymous": false,
      "inputs": [
        {
          "indexed": false,
          "internalType": "uint256",
          "name": "id",
          "type": "uint256"
        }
      ],
      "name": "Activated",
      "type": "event"
    },
    {
      "anonymous": false,
      "inputs": [
        {
          "indexed": true,
          "internalType": "address",
          "name": "owner",
          "type": "address"
        },
        {
          "indexed": true,
          "internalType": "address",
          "name": "approved",
          "type": "address"
        },
        {
          "indexed": true,
          "internalType": "uint256",
          "name": "tokenId",
          "type": "uint256"
        }
      ],
      "name": "Approval",
      "type": "event"
    },
    {
      "anonymous": false,
      "inputs": [
        {
          "indexed": true,
          "internalType": "address",
          "name": "owner",
          "type": "address"
        },
        {
          "indexed": true,
          "internalType": "address",
          "name": "operator",
          "type": "address"
        },
        {
          "indexed": false,
          "internalType": "bool",
          "name": "approved",
          "type": "bool"
        }
      ],
      "name": "ApprovalForAll",
      "type": "event"
    },
    {
      "anonymous": false,
      "inputs": [
        {
          "indexed": true,
          "internalType": "uint256",
          "name": "id",
          "type": "uint256"
        },
        {
          "indexed": false,
          "internalType": "int256",
          "name": "share",
          "type": "int256"
        }
      ],
      "name": "Claimed",
      "type": "event"
    },
    {
      "anonymous": false,
      "inputs": [
        {
          "indexed": false,
          "internalType": "uint256",
          "name": "id",
          "type": "uint256"
        }
      ],
      "name": "Deactivated",
      "type": "event"
    },
    {
      "anonymous": false,
      "inputs": [
        {
          "indexed": true,
          "internalType": "uint256",
          "name": "id",
          "type": "uint256"
        },
        {
          "indexed": false,
          "internalType": "uint256",
          "name": "amount",
          "type": "uint256"
        }
      ],
      "name": "Deposited",
      "type": "event"
    },
    {
      "anonymous": false,
      "inputs": [
        {
          "indexed": true,
          "internalType": "uint256",
          "name": "id",
          "type": "uint256"
        },
        {
          "indexed": false,
          "internalType": "int256",
          "name": "amount",
          "type": "int256"
        }
      ],
      "name": "Exchanged",
      "type": "event"
    },
    {
      "anonymous": false,
      "inputs": [
        {
          "indexed": true,
          "internalType": "address",
          "name": "to",
          "type": "address"
        },
        {
          "indexed": true,
          "internalType": "uint256",
          "name": "id",
          "type": "uint256"
        }
      ],
      "name": "Liquidated",
      "type": "event"
    },
    {
      "anonymous": false,
      "inputs": [
        {
          "indexed": true,
          "internalType": "address",
          "name": "to",
          "type": "address"
        },
        {
          "indexed": true,
          "internalType": "uint256",
          "name": "id",
          "type": "uint256"
        }
      ],
      "name": "Minted",
      "type": "event"
    },
    {
      "anonymous": false,
      "inputs": [
        {
          "indexed": false,
          "internalType": "uint256",
          "name": "tokenId",
          "type": "uint256"
        },
        {
          "components": [
            {
              "internalType": "address",
              "name": "operator",
              "type": "address"
            },
            {
              "internalType": "enum DNft.Permission[]",
              "name": "permissions",
              "type": "uint8[]"
            }
          ],
          "indexed": false,
          "internalType": "struct DNft.PermissionSet[]",
          "name": "permissions",
          "type": "tuple[]"
        }
      ],
      "name": "Modified",
      "type": "event"
    },
    {
      "anonymous": false,
      "inputs": [
        {
          "indexed": true,
          "internalType": "uint256",
          "name": "from",
          "type": "uint256"
        },
        {
          "indexed": true,
          "internalType": "uint256",
          "name": "to",
          "type": "uint256"
        },
        {
          "indexed": false,
          "internalType": "int256",
          "name": "amount",
          "type": "int256"
        }
      ],
      "name": "Moved",
      "type": "event"
    },
    {
      "anonymous": false,
      "inputs": [
        {
          "indexed": true,
          "internalType": "address",
          "name": "to",
          "type": "address"
        },
        {
          "indexed": true,
          "internalType": "uint256",
          "name": "id",
          "type": "uint256"
        },
        {
          "indexed": false,
          "internalType": "uint256",
          "name": "amount",
          "type": "uint256"
        }
      ],
      "name": "Redeemed",
      "type": "event"
    },
    {
      "anonymous": false,
      "inputs": [
        {
          "indexed": true,
          "internalType": "uint256",
          "name": "from",
          "type": "uint256"
        },
        {
          "indexed": true,
          "internalType": "uint256",
          "name": "to",
          "type": "uint256"
        },
        {
          "indexed": false,
          "internalType": "int256",
          "name": "share",
          "type": "int256"
        }
      ],
      "name": "Sniped",
      "type": "event"
    },
    {
      "anonymous": false,
      "inputs": [
        {
          "indexed": false,
          "internalType": "uint256",
          "name": "id",
          "type": "uint256"
        }
      ],
      "name": "Synced",
      "type": "event"
    },
    {
      "anonymous": false,
      "inputs": [
        {
          "indexed": true,
          "internalType": "address",
          "name": "from",
          "type": "address"
        },
        {
          "indexed": true,
          "internalType": "address",
          "name": "to",
          "type": "address"
        },
        {
          "indexed": true,
          "internalType": "uint256",
          "name": "tokenId",
          "type": "uint256"
        }
      ],
      "name": "Transfer",
      "type": "event"
    },
    {
      "anonymous": false,
      "inputs": [
        {
          "indexed": true,
          "internalType": "uint256",
          "name": "from",
          "type": "uint256"
        },
        {
          "indexed": true,
          "internalType": "address",
          "name": "to",
          "type": "address"
        },
        {
          "indexed": false,
          "internalType": "uint256",
          "name": "amount",
          "type": "uint256"
        }
      ],
      "name": "Withdrawn",
      "type": "event"
    },
    {
      "anonymous": false,
      "inputs": [
        {
          "indexed": true,
          "internalType": "uint256",
          "name": "id",
          "type": "uint256"
        },
        {
          "indexed": false,
          "internalType": "uint256",
          "name": "totalXp",
          "type": "uint256"
        }
      ],
      "name": "XpIncreased",
      "type": "event"
    },
    {
      "inputs": [],
      "name": "MAX_SUPPLY",
      "outputs": [
        {
          "internalType": "uint256",
          "name": "",
          "type": "uint256"
        }
      ],
      "stateMutability": "view",
      "type": "function"
    },
    {
      "inputs": [],
      "name": "MIN_COLLATERIZATION_RATIO",
      "outputs": [
        {
          "internalType": "uint256",
          "name": "",
          "type": "uint256"
        }
      ],
      "stateMutability": "view",
      "type": "function"
    },
    {
      "inputs": [],
      "name": "MIN_MINT_DYAD_DEPOSIT",
      "outputs": [
        {
          "internalType": "int256",
          "name": "",
          "type": "int256"
        }
      ],
      "stateMutability": "view",
      "type": "function"
    },
    {
      "inputs": [],
      "name": "MIN_PRICE_CHANGE_BETWEEN_SYNC",
      "outputs": [
        {
          "internalType": "uint256",
          "name": "",
          "type": "uint256"
        }
      ],
      "stateMutability": "view",
      "type": "function"
    },
    {
      "inputs": [],
      "name": "MIN_TIME_BETWEEN_SYNC",
      "outputs": [
        {
          "internalType": "uint256",
          "name": "",
          "type": "uint256"
        }
      ],
      "stateMutability": "view",
      "type": "function"
    },
    {
      "inputs": [],
      "name": "SNIPE_MINT_SHARE_REWARD",
      "outputs": [
        {
          "internalType": "int256",
          "name": "",
          "type": "int256"
        }
      ],
      "stateMutability": "view",
      "type": "function"
    },
    {
      "inputs": [],
      "name": "XP_CLAIM_REWARD",
      "outputs": [
        {
          "internalType": "uint256",
          "name": "",
          "type": "uint256"
        }
      ],
      "stateMutability": "view",
      "type": "function"
    },
    {
      "inputs": [],
      "name": "XP_LIQUIDATION_REWARD",
      "outputs": [
        {
          "internalType": "uint256",
          "name": "",
          "type": "uint256"
        }
      ],
      "stateMutability": "view",
      "type": "function"
    },
    {
      "inputs": [],
      "name": "XP_MINT_REWARD",
      "outputs": [
        {
          "internalType": "uint256",
          "name": "",
          "type": "uint256"
        }
      ],
      "stateMutability": "view",
      "type": "function"
    },
    {
      "inputs": [],
      "name": "XP_NORM_FACTOR",
      "outputs": [
        {
          "internalType": "uint256",
          "name": "",
          "type": "uint256"
        }
      ],
      "stateMutability": "view",
      "type": "function"
    },
    {
      "inputs": [],
      "name": "XP_SNIPE_BURN_REWARD",
      "outputs": [
        {
          "internalType": "uint256",
          "name": "",
          "type": "uint256"
        }
      ],
      "stateMutability": "view",
      "type": "function"
    },
    {
      "inputs": [],
      "name": "XP_SNIPE_MINT_REWARD",
      "outputs": [
        {
          "internalType": "uint256",
          "name": "",
          "type": "uint256"
        }
      ],
      "stateMutability": "view",
      "type": "function"
    },
    {
      "inputs": [],
      "name": "XP_SYNC_REWARD",
      "outputs": [
        {
          "internalType": "uint256",
          "name": "",
          "type": "uint256"
        }
      ],
      "stateMutability": "view",
      "type": "function"
    },
    {
      "inputs": [
        {
          "internalType": "uint256",
          "name": "",
          "type": "uint256"
        }
      ],
      "name": "_idToBlockOfLastDeposit",
      "outputs": [
        {
          "internalType": "uint256",
          "name": "",
          "type": "uint256"
        }
      ],
      "stateMutability": "view",
      "type": "function"
    },
    {
      "inputs": [
        {
          "internalType": "uint256",
          "name": "id",
          "type": "uint256"
        }
      ],
      "name": "activate",
      "outputs": [],
      "stateMutability": "nonpayable",
      "type": "function"
    },
    {
      "inputs": [
        {
          "internalType": "address",
          "name": "to",
          "type": "address"
        },
        {
          "internalType": "uint256",
          "name": "tokenId",
          "type": "uint256"
        }
      ],
      "name": "approve",
      "outputs": [],
      "stateMutability": "nonpayable",
      "type": "function"
    },
    {
      "inputs": [
        {
          "internalType": "address",
          "name": "owner",
          "type": "address"
        }
      ],
      "name": "balanceOf",
      "outputs": [
        {
          "internalType": "uint256",
          "name": "",
          "type": "uint256"
        }
      ],
      "stateMutability": "view",
      "type": "function"
    },
    {
      "inputs": [
        {
          "internalType": "uint256",
          "name": "id",
          "type": "uint256"
        }
      ],
      "name": "claim",
      "outputs": [
        {
          "internalType": "int256",
          "name": "",
          "type": "int256"
        }
      ],
      "stateMutability": "nonpayable",
      "type": "function"
    },
    {
      "inputs": [
        {
          "internalType": "uint256",
          "name": "id",
          "type": "uint256"
        }
      ],
      "name": "deactivate",
      "outputs": [],
      "stateMutability": "nonpayable",
      "type": "function"
    },
    {
      "inputs": [
        {
          "internalType": "uint256",
          "name": "id",
          "type": "uint256"
        },
        {
          "internalType": "uint256",
          "name": "amount",
          "type": "uint256"
        }
      ],
      "name": "deposit",
      "outputs": [],
      "stateMutability": "nonpayable",
      "type": "function"
    },
    {
      "inputs": [],
      "name": "dyad",
      "outputs": [
        {
          "internalType": "contract Dyad",
          "name": "",
          "type": "address"
        }
      ],
      "stateMutability": "view",
      "type": "function"
    },
    {
      "inputs": [],
      "name": "dyadDelta",
      "outputs": [
        {
          "internalType": "int256",
          "name": "",
          "type": "int256"
        }
      ],
      "stateMutability": "view",
      "type": "function"
    },
    {
      "inputs": [
        {
          "internalType": "uint256",
          "name": "id",
          "type": "uint256"
        }
      ],
      "name": "exchange",
      "outputs": [
        {
          "internalType": "int256",
          "name": "",
          "type": "int256"
        }
      ],
      "stateMutability": "payable",
      "type": "function"
    },
    {
      "inputs": [
        {
          "internalType": "uint256",
          "name": "tokenId",
          "type": "uint256"
        }
      ],
      "name": "getApproved",
      "outputs": [
        {
          "internalType": "address",
          "name": "",
          "type": "address"
        }
      ],
      "stateMutability": "view",
      "type": "function"
    },
    {
      "inputs": [
        {
          "internalType": "uint256",
          "name": "_id",
          "type": "uint256"
        },
        {
          "components": [
            {
              "internalType": "address",
              "name": "operator",
              "type": "address"
            },
            {
              "internalType": "enum DNft.Permission[]",
              "name": "permissions",
              "type": "uint8[]"
            }
          ],
          "internalType": "struct DNft.PermissionSet[]",
          "name": "_permissionSets",
          "type": "tuple[]"
        }
      ],
      "name": "grant",
      "outputs": [],
      "stateMutability": "nonpayable",
      "type": "function"
    },
    {
      "inputs": [
        {
          "internalType": "uint256",
          "name": "id",
          "type": "uint256"
        },
        {
          "internalType": "address",
          "name": "operator",
          "type": "address"
        },
        {
          "internalType": "enum DNft.Permission",
          "name": "permission",
          "type": "uint8"
        }
      ],
      "name": "hasPermission",
      "outputs": [
        {
          "internalType": "bool",
          "name": "",
          "type": "bool"
        }
      ],
      "stateMutability": "view",
      "type": "function"
    },
    {
      "inputs": [
        {
          "internalType": "uint256",
          "name": "id",
          "type": "uint256"
        },
        {
          "internalType": "address",
          "name": "operator",
          "type": "address"
        },
        {
          "internalType": "enum DNft.Permission[]",
          "name": "permissions",
          "type": "uint8[]"
        }
      ],
      "name": "hasPermissions",
      "outputs": [
        {
          "internalType": "bool[]",
          "name": "_hasPermissions",
          "type": "bool[]"
        }
      ],
      "stateMutability": "view",
      "type": "function"
    },
    {
      "inputs": [
        {
          "internalType": "uint256",
          "name": "",
          "type": "uint256"
        },
        {
          "internalType": "uint256",
          "name": "",
          "type": "uint256"
        }
      ],
      "name": "idToClaimed",
      "outputs": [
        {
          "internalType": "bool",
          "name": "",
          "type": "bool"
        }
      ],
      "stateMutability": "view",
      "type": "function"
    },
    {
      "inputs": [
        {
          "internalType": "uint256",
          "name": "",
          "type": "uint256"
        }
      ],
      "name": "idToNft",
      "outputs": [
        {
          "internalType": "uint256",
          "name": "xp",
          "type": "uint256"
        },
        {
          "internalType": "int256",
          "name": "deposit",
          "type": "int256"
        },
        {
          "internalType": "uint256",
          "name": "withdrawal",
          "type": "uint256"
        },
        {
          "internalType": "uint256",
          "name": "lastOwnershipChange",
          "type": "uint256"
        },
        {
          "internalType": "bool",
          "name": "isActive",
          "type": "bool"
        }
      ],
      "stateMutability": "view",
      "type": "function"
    },
    {
      "inputs": [
        {
          "internalType": "uint256",
          "name": "",
          "type": "uint256"
        },
        {
          "internalType": "address",
          "name": "",
          "type": "address"
        }
      ],
      "name": "idToNftPermission",
      "outputs": [
        {
          "internalType": "uint8",
          "name": "permissions",
          "type": "uint8"
        },
        {
          "internalType": "uint248",
          "name": "lastUpdated",
          "type": "uint248"
        }
      ],
      "stateMutability": "view",
      "type": "function"
    },
    {
      "inputs": [
        {
          "internalType": "address",
          "name": "owner",
          "type": "address"
        },
        {
          "internalType": "address",
          "name": "operator",
          "type": "address"
        }
      ],
      "name": "isApprovedForAll",
      "outputs": [
        {
          "internalType": "bool",
          "name": "",
          "type": "bool"
        }
      ],
      "stateMutability": "view",
      "type": "function"
    },
    {
      "inputs": [],
      "name": "lastEthPrice",
      "outputs": [
        {
          "internalType": "int256",
          "name": "",
          "type": "int256"
        }
      ],
      "stateMutability": "view",
      "type": "function"
    },
    {
      "inputs": [
        {
          "internalType": "uint256",
          "name": "id",
          "type": "uint256"
        },
        {
          "internalType": "address",
          "name": "to",
          "type": "address"
        }
      ],
      "name": "liquidate",
      "outputs": [],
      "stateMutability": "payable",
      "type": "function"
    },
    {
      "inputs": [],
      "name": "maxXp",
      "outputs": [
        {
          "internalType": "uint256",
          "name": "",
          "type": "uint256"
        }
      ],
      "stateMutability": "view",
      "type": "function"
    },
    {
      "inputs": [
        {
          "internalType": "address",
          "name": "to",
          "type": "address"
        }
      ],
      "name": "mint",
      "outputs": [
        {
          "internalType": "uint256",
          "name": "",
          "type": "uint256"
        }
      ],
      "stateMutability": "payable",
      "type": "function"
    },
    {
      "inputs": [
        {
          "internalType": "uint256",
          "name": "_from",
          "type": "uint256"
        },
        {
          "internalType": "uint256",
          "name": "_to",
          "type": "uint256"
        },
        {
          "internalType": "int256",
          "name": "_amount",
          "type": "int256"
        }
      ],
      "name": "move",
      "outputs": [],
      "stateMutability": "nonpayable",
      "type": "function"
    },
    {
      "inputs": [],
      "name": "name",
      "outputs": [
        {
          "internalType": "string",
          "name": "",
          "type": "string"
        }
      ],
      "stateMutability": "view",
      "type": "function"
    },
    {
      "inputs": [
        {
          "internalType": "uint256",
          "name": "tokenId",
          "type": "uint256"
        }
      ],
      "name": "ownerOf",
      "outputs": [
        {
          "internalType": "address",
          "name": "",
          "type": "address"
        }
      ],
      "stateMutability": "view",
      "type": "function"
    },
    {
      "inputs": [],
      "name": "prevDyadDelta",
      "outputs": [
        {
          "internalType": "int256",
          "name": "",
          "type": "int256"
        }
      ],
      "stateMutability": "view",
      "type": "function"
    },
    {
      "inputs": [],
      "name": "prevSyncedBlock",
      "outputs": [
        {
          "internalType": "uint256",
          "name": "",
          "type": "uint256"
        }
      ],
      "stateMutability": "view",
      "type": "function"
    },
    {
      "inputs": [
        {
          "internalType": "uint256",
          "name": "from",
          "type": "uint256"
        },
        {
          "internalType": "address",
          "name": "to",
          "type": "address"
        },
        {
          "internalType": "uint256",
          "name": "amount",
          "type": "uint256"
        }
      ],
      "name": "redeem",
      "outputs": [
        {
          "internalType": "uint256",
          "name": "",
          "type": "uint256"
        }
      ],
      "stateMutability": "nonpayable",
      "type": "function"
    },
    {
      "inputs": [
        {
          "internalType": "address",
          "name": "from",
          "type": "address"
        },
        {
          "internalType": "address",
          "name": "to",
          "type": "address"
        },
        {
          "internalType": "uint256",
          "name": "tokenId",
          "type": "uint256"
        }
      ],
      "name": "safeTransferFrom",
      "outputs": [],
      "stateMutability": "nonpayable",
      "type": "function"
    },
    {
      "inputs": [
        {
          "internalType": "address",
          "name": "from",
          "type": "address"
        },
        {
          "internalType": "address",
          "name": "to",
          "type": "address"
        },
        {
          "internalType": "uint256",
          "name": "tokenId",
          "type": "uint256"
        },
        {
          "internalType": "bytes",
          "name": "data",
          "type": "bytes"
        }
      ],
      "name": "safeTransferFrom",
      "outputs": [],
      "stateMutability": "nonpayable",
      "type": "function"
    },
    {
      "inputs": [
        {
          "internalType": "address",
          "name": "operator",
          "type": "address"
        },
        {
          "internalType": "bool",
          "name": "approved",
          "type": "bool"
        }
      ],
      "name": "setApprovalForAll",
      "outputs": [],
      "stateMutability": "nonpayable",
      "type": "function"
    },
    {
      "inputs": [
        {
          "internalType": "uint256",
          "name": "_from",
          "type": "uint256"
        },
        {
          "internalType": "uint256",
          "name": "_to",
          "type": "uint256"
        }
      ],
      "name": "snipe",
      "outputs": [
        {
          "internalType": "int256",
          "name": "",
          "type": "int256"
        }
      ],
      "stateMutability": "nonpayable",
      "type": "function"
    },
    {
      "inputs": [
        {
          "internalType": "bytes4",
          "name": "interfaceId",
          "type": "bytes4"
        }
      ],
      "name": "supportsInterface",
      "outputs": [
        {
          "internalType": "bool",
          "name": "",
          "type": "bool"
        }
      ],
      "stateMutability": "view",
      "type": "function"
    },
    {
      "inputs": [],
      "name": "symbol",
      "outputs": [
        {
          "internalType": "string",
          "name": "",
          "type": "string"
        }
      ],
      "stateMutability": "view",
      "type": "function"
    },
    {
      "inputs": [
        {
          "internalType": "uint256",
          "name": "id",
          "type": "uint256"
        }
      ],
      "name": "sync",
      "outputs": [
        {
          "internalType": "int256",
          "name": "",
          "type": "int256"
        }
      ],
      "stateMutability": "nonpayable",
      "type": "function"
    },
    {
      "inputs": [],
      "name": "syncedBlock",
      "outputs": [
        {
          "internalType": "uint256",
          "name": "",
          "type": "uint256"
        }
      ],
      "stateMutability": "view",
      "type": "function"
    },
    {
      "inputs": [],
      "name": "timeOfLastSync",
      "outputs": [
        {
          "internalType": "uint256",
          "name": "",
          "type": "uint256"
        }
      ],
      "stateMutability": "view",
      "type": "function"
    },
    {
      "inputs": [
        {
          "internalType": "uint256",
          "name": "index",
          "type": "uint256"
        }
      ],
      "name": "tokenByIndex",
      "outputs": [
        {
          "internalType": "uint256",
          "name": "",
          "type": "uint256"
        }
      ],
      "stateMutability": "view",
      "type": "function"
    },
    {
      "inputs": [
        {
          "internalType": "address",
          "name": "owner",
          "type": "address"
        },
        {
          "internalType": "uint256",
          "name": "index",
          "type": "uint256"
        }
      ],
      "name": "tokenOfOwnerByIndex",
      "outputs": [
        {
          "internalType": "uint256",
          "name": "",
          "type": "uint256"
        }
      ],
      "stateMutability": "view",
      "type": "function"
    },
    {
      "inputs": [
        {
          "internalType": "uint256",
          "name": "tokenId",
          "type": "uint256"
        }
      ],
      "name": "tokenURI",
      "outputs": [
        {
          "internalType": "string",
          "name": "",
          "type": "string"
        }
      ],
      "stateMutability": "view",
      "type": "function"
    },
    {
      "inputs": [],
      "name": "totalSupply",
      "outputs": [
        {
          "internalType": "uint256",
          "name": "",
          "type": "uint256"
        }
      ],
      "stateMutability": "view",
      "type": "function"
    },
    {
      "inputs": [],
      "name": "totalXp",
      "outputs": [
        {
          "internalType": "uint256",
          "name": "",
          "type": "uint256"
        }
      ],
      "stateMutability": "view",
      "type": "function"
    },
    {
      "inputs": [
        {
          "internalType": "address",
          "name": "from",
          "type": "address"
        },
        {
          "internalType": "address",
          "name": "to",
          "type": "address"
        },
        {
          "internalType": "uint256",
          "name": "tokenId",
          "type": "uint256"
        }
      ],
      "name": "transferFrom",
      "outputs": [],
      "stateMutability": "nonpayable",
      "type": "function"
    },
    {
      "inputs": [
        {
          "internalType": "uint256",
          "name": "from",
          "type": "uint256"
        },
        {
          "internalType": "address",
          "name": "to",
          "type": "address"
        },
        {
          "internalType": "uint256",
          "name": "amount",
          "type": "uint256"
        }
      ],
      "name": "withdraw",
      "outputs": [],
      "stateMutability": "nonpayable",
      "type": "function"
    }
  ],
  "bytecode": {
    "object": "0x6101006040526001600a553480156200001757600080fd5b50604051620053d5380380620053d58339810160408190526200003a91620009cf565b60405180604001604052806008815260200167111e58590813919560c21b815250604051806040016040528060048152602001631913919560e21b815250816000908162000089919062000b81565b50600162000098828262000b81565b5050601780546001600160a01b03808b166001600160a01b03199283161790925560188054928a169290911691909117905550608085905260a084905260c083905260e0829052620000e962000199565b600b5560005b81518110156200018b576000806200012984848151811062000115576200011562000c4d565b60200260200101516200021460201b60201c565b6000918252601360209081526040928390208251815590820151600182015591810151600283015560608101516003830155608001516004909101805460ff191691151591909117905550819050620001828162000c79565b915050620000ef565b505050505050505062000d4a565b60185460408051633fabe5a360e21b815290516000926001600160a01b03169163feaf968c9160048083019260a09291908290030181865afa158015620001e4573d6000803e3d6000fd5b505050506040513d601f19601f820116820180604052508101906200020a919062000cad565b5091949350505050565b60006200024b6040518060a00160405280600081526020016000815260200160008152602001600081526020016000151581525090565b60006200025760085490565b905060805181106200027c5760405163794bb39b60e01b815260040160405180910390fd5b6200028884826200030c565b620002bd6040518060a00160405280600081526020016000815260200160008152602001600081526020016000151581525090565b620002cc81836103e8620004b1565b60405182906001600160a01b038716907f30385c845b448a36257a6a1716e6ad2e1bc2cbe333cde1e69fe849ad6511adfe90600090a39094909350915050565b6001600160a01b038216620003685760405162461bcd60e51b815260206004820181905260248201527f4552433732313a206d696e7420746f20746865207a65726f206164647265737360448201526064015b60405180910390fd5b6000818152600260205260409020546001600160a01b031615620003cf5760405162461bcd60e51b815260206004820152601c60248201527f4552433732313a20746f6b656e20616c7265616479206d696e7465640000000060448201526064016200035f565b620003df60008383600162000530565b6000818152600260205260409020546001600160a01b031615620004465760405162461bcd60e51b815260206004820152601c60248201527f4552433732313a20746f6b656e20616c7265616479206d696e7465640000000060448201526064016200035f565b6001600160a01b038216600081815260036020908152604080832080546001019055848352600290915280822080546001600160a01b0319168417905551839291907fddf252ad1be2c89b69c2b068fc378daa952ba7f163c4a11628f55a4df523b3ef908290a45050565b8083600001818151620004c5919062000d02565b90525060115483511115620004da5782516011555b8060106000828254620004ee919062000d02565b909155505060105460405190815282907fbed79548735be4d252e30687e5817f81bb3a0166f8f2656f162b2fd746c53ae19060200160405180910390a2505050565b62000549848484846200056960201b620029da1760201c565b506000908152601360205260409020436003909101555050565b50505050565b6200058284848484620006cd60201b62002b1a1760201c565b6001811115620005fb5760405162461bcd60e51b815260206004820152603560248201527f455243373231456e756d657261626c653a20636f6e736563757469766520747260448201527f616e7366657273206e6f7420737570706f72746564000000000000000000000060648201526084016200035f565b816001600160a01b0385166200065a576200065481600880546000838152600960205260408120829055600182018355919091527ff3f7a9fe364faab93b216da50a3214154f22a0a2b415b23a84c8169e8b636ee30155565b62000680565b836001600160a01b0316856001600160a01b03161462000680576200068085826200075c565b6001600160a01b038416620006a0576200069a8162000809565b620006c6565b846001600160a01b0316846001600160a01b031614620006c657620006c68482620008c3565b5050505050565b600181111562000563576001600160a01b0384161562000717576001600160a01b038416600090815260036020526040812080548392906200071190849062000d1e565b90915550505b6001600160a01b0383161562000563576001600160a01b038316600090815260036020526040812080548392906200075190849062000d02565b909155505050505050565b6000600162000776846200091460201b620016ee1760201c565b62000782919062000d1e565b600083815260076020526040902054909150808214620007d6576001600160a01b03841660009081526006602090815260408083208584528252808320548484528184208190558352600790915290208190555b5060009182526007602090815260408084208490556001600160a01b039094168352600681528383209183525290812055565b6008546000906200081d9060019062000d1e565b6000838152600960205260408120546008805493945090928490811062000848576200084862000c4d565b9060005260206000200154905080600883815481106200086c576200086c62000c4d565b6000918252602080832090910192909255828152600990915260408082208490558582528120556008805480620008a757620008a762000d34565b6001900381819060005260206000200160009055905550505050565b6000620008db836200091460201b620016ee1760201c565b6001600160a01b039093166000908152600660209081526040808320868452825280832085905593825260079052919091209190915550565b60006001600160a01b038216620009805760405162461bcd60e51b815260206004820152602960248201527f4552433732313a2061646472657373207a65726f206973206e6f7420612076616044820152683634b21037bbb732b960b91b60648201526084016200035f565b506001600160a01b031660009081526003602052604090205490565b80516001600160a01b0381168114620009b457600080fd5b919050565b634e487b7160e01b600052604160045260246000fd5b600080600080600080600060e0888a031215620009eb57600080fd5b620009f6886200099c565b9650602062000a07818a016200099c565b60408a015160608b015160808c015160a08d015160c08e0151949b50929950909750955093506001600160401b038082111562000a4357600080fd5b818b0191508b601f83011262000a5857600080fd5b81518181111562000a6d5762000a6d620009b9565b8060051b604051601f19603f8301168101818110858211171562000a955762000a95620009b9565b60405291825284820192508381018501918e83111562000ab457600080fd5b938501935b8285101562000add5762000acd856200099c565b8452938501939285019262000ab9565b80965050505050505092959891949750929550565b600181811c9082168062000b0757607f821691505b60208210810362000b2857634e487b7160e01b600052602260045260246000fd5b50919050565b601f82111562000b7c57600081815260208120601f850160051c8101602086101562000b575750805b601f850160051c820191505b8181101562000b785782815560010162000b63565b5050505b505050565b81516001600160401b0381111562000b9d5762000b9d620009b9565b62000bb58162000bae845462000af2565b8462000b2e565b602080601f83116001811462000bed576000841562000bd45750858301515b600019600386901b1c1916600185901b17855562000b78565b600085815260208120601f198616915b8281101562000c1e5788860151825594840194600190910190840162000bfd565b508582101562000c3d5787850151600019600388901b60f8161c191681555b5050505050600190811b01905550565b634e487b7160e01b600052603260045260246000fd5b634e487b7160e01b600052601160045260246000fd5b60006001820162000c8e5762000c8e62000c63565b5060010190565b80516001600160501b0381168114620009b457600080fd5b600080600080600060a0868803121562000cc657600080fd5b62000cd18662000c95565b945060208601519350604086015192506060860151915062000cf66080870162000c95565b90509295509295909350565b8082018082111562000d185762000d1862000c63565b92915050565b8181038181111562000d185762000d1862000c63565b634e487b7160e01b600052603160045260246000fd5b60805160a05160c05160e05161463562000da060003960008181610669015261163f0152600081816104790152611b9a015260008181610ad00152611c1e01526000818161058d015261317c01526146356000f3fe6080604052600436106103765760003560e01c80635fae8b3d116101d1578063b88d4fde11610102578063decb84dc116100a0578063e64466911161006f578063e644669114610aa8578063e8101c1b14610abe578063e985e9c514610af2578063febb16df14610b3b57600080fd5b8063decb84dc14610a25578063e2bbb15814610a3b578063e63697c814610a5b578063e643ebac14610a7b57600080fd5b8063c9e3d730116100dc578063c9e3d730146109b4578063d4912507146109cf578063d8780161146109e5578063de1eecb314610a0557600080fd5b8063b88d4fde1461095a578063c784cbe61461097a578063c87b56dd1461099457600080fd5b8063959526191161016f578063aadfdcc211610149578063aadfdcc2146108e0578063add95a51146108fa578063b1357bf91461091a578063b260c42a1461093a57600080fd5b8063959526191461088b57806395d89b41146108ab578063a22cb465146108c057600080fd5b80637038fc4e116101ab5780637038fc4e1461081557806370a082311461082b578063823abfd91461084b578063916b9bef1461086b57600080fd5b80635fae8b3d146107cf5780636352211e146107e25780636a6278421461080257600080fd5b806332cb6b0c116102ab578063483afb2d116102495780634f6ccce7116102235780634f6ccce7146107535780635355655914610773578063551e123b146107865780635982dc29146107b357600080fd5b8063483afb2d146106c15780634b2ec8ee146105605780634ddc77c81461073857600080fd5b8063379607f511610285578063379607f514610637578063397b802414610657578063413217b71461068b57806342842e0e146106a157600080fd5b806332cb6b0c1461057b57806335f2faf0146105af57806336416455146105cb57600080fd5b8063174c67e11161031857806323b872dd116102f257806323b872dd1461050a578063265f63a11461052a5780632f745c59146105405780633295787f1461056057600080fd5b8063174c67e1146104bf57806318160ddd146104d55780631849c73a146104ea57600080fd5b8063081812fc11610354578063081812fc1461040d578063095ea7b3146104455780630ba4ae301461046757806310d4f96d146104a957600080fd5b8063019e242e1461037b57806301ffc9a7146103cb57806306fdde03146103eb575b600080fd5b34801561038757600080fd5b506103b6610396366004613b28565b601560209081526000928352604080842090915290825290205460ff1681565b60405190151581526020015b60405180910390f35b3480156103d757600080fd5b506103b66103e6366004613b60565b610b51565b3480156103f757600080fd5b50610400610b7c565b6040516103c29190613bcd565b34801561041957600080fd5b5061042d610428366004613be0565b610c0e565b6040516001600160a01b0390911681526020016103c2565b34801561045157600080fd5b50610465610460366004613c15565b610c35565b005b34801561047357600080fd5b5061049b7f000000000000000000000000000000000000000000000000000000000000000081565b6040519081526020016103c2565b3480156104b557600080fd5b5061049b60105481565b3480156104cb57600080fd5b5061049b60125481565b3480156104e157600080fd5b5060085461049b565b3480156104f657600080fd5b50610465610505366004613c3f565b610d4f565b34801561051657600080fd5b50610465610525366004613c6b565b610e37565b34801561053657600080fd5b5061049b600c5481565b34801561054c57600080fd5b5061049b61055b366004613c15565b610e68565b34801561056c57600080fd5b5061049b66016bcc41e9000081565b34801561058757600080fd5b5061049b7f000000000000000000000000000000000000000000000000000000000000000081565b3480156105bb57600080fd5b5061049b6714d1120d7b16000081565b3480156105d757600080fd5b506106166105e6366004613ca7565b601460209081526000928352604080842090915290825290205460ff81169061010090046001600160f81b031682565b6040805160ff90931683526001600160f81b039091166020830152016103c2565b34801561064357600080fd5b5061049b610652366004613be0565b610efe565b34801561066357600080fd5b5061049b7f000000000000000000000000000000000000000000000000000000000000000081565b34801561069757600080fd5b5061049b60115481565b3480156106ad57600080fd5b506104656106bc366004613c6b565b611129565b3480156106cd57600080fd5b5061070e6106dc366004613be0565b601360205260009081526040902080546001820154600283015460038401546004909401549293919290919060ff1685565b6040805195865260208601949094529284019190915260608301521515608082015260a0016103c2565b34801561074457600080fd5b5061049b660110d9316ec00081565b34801561075f57600080fd5b5061049b61076e366004613be0565b611144565b61049b610781366004613be0565b6111d7565b34801561079257600080fd5b506107a66107a1366004613d18565b6112ca565b6040516103c29190613d72565b3480156107bf57600080fd5b5061049b670853a0d2313c000081565b6104656107dd366004613ca7565b61145a565b3480156107ee57600080fd5b5061042d6107fd366004613be0565b6115cf565b61049b610810366004613db8565b61162f565b34801561082157600080fd5b5061049b600b5481565b34801561083757600080fd5b5061049b610846366004613db8565b6116ee565b34801561085757600080fd5b506103b6610866366004613de2565b611774565b34801561087757600080fd5b50610465610886366004613be0565b61182b565b34801561089757600080fd5b506104656108a6366004613e1e565b611956565b3480156108b757600080fd5b50610400611aae565b3480156108cc57600080fd5b506104656108db366004613e78565b611abd565b3480156108ec57600080fd5b5061049b65b5e620f4800081565b34801561090657600080fd5b5060175461042d906001600160a01b031681565b34801561092657600080fd5b5061049b610935366004613be0565b611acc565b34801561094657600080fd5b50610465610955366004613be0565b611d88565b34801561096657600080fd5b50610465610975366004613f1f565b611e41565b34801561098657600080fd5b5061049b655af3107a400081565b3480156109a057600080fd5b506104006109af366004613be0565b611e79565b3480156109c057600080fd5b5061049b662386f26fc1000081565b3480156109db57600080fd5b5061049b600e5481565b3480156109f157600080fd5b5061049b610a00366004613fdf565b611eec565b348015610a1157600080fd5b5061049b610a20366004613b28565b612135565b348015610a3157600080fd5b5061049b600d5481565b348015610a4757600080fd5b50610465610a56366004613b28565b6124eb565b348015610a6757600080fd5b50610465610a76366004613fdf565b6126f5565b348015610a8757600080fd5b5061049b610a96366004613be0565b60166020526000908152604090205481565b348015610ab457600080fd5b5061049b600f5481565b348015610aca57600080fd5b5061049b7f000000000000000000000000000000000000000000000000000000000000000081565b348015610afe57600080fd5b506103b6610b0d366004614004565b6001600160a01b03918216600090815260056020908152604080832093909416825291909152205460ff1690565b348015610b4757600080fd5b5061049b6103e881565b60006001600160e01b0319821663780e9d6360e01b1480610b765750610b7682612ba2565b92915050565b606060008054610b8b9061402e565b80601f0160208091040260200160405190810160405280929190818152602001828054610bb79061402e565b8015610c045780601f10610bd957610100808354040283529160200191610c04565b820191906000526020600020905b815481529060010190602001808311610be757829003601f168201915b5050505050905090565b6000610c1982612bf2565b506000908152600460205260409020546001600160a01b031690565b6000610c40826115cf565b9050806001600160a01b0316836001600160a01b031603610cb25760405162461bcd60e51b815260206004820152602160248201527f4552433732313a20617070726f76616c20746f2063757272656e74206f776e656044820152603960f91b60648201526084015b60405180910390fd5b336001600160a01b0382161480610cce5750610cce8133610b0d565b610d405760405162461bcd60e51b815260206004820152603d60248201527f4552433732313a20617070726f76652063616c6c6572206973206e6f7420746f60448201527f6b656e206f776e6572206f7220617070726f76656420666f7220616c6c0000006064820152608401610ca9565b610d4a8383612c54565b505050565b826004610d5d823383611774565b610d7e57818160405163acb8d02d60e01b8152600401610ca992919061409a565b60008313610d8b57600080fd5b60008581526013602052604090206001810154841315610dc657806001015460405163689b65e960e11b8152600401610ca991815260200190565b60018082018054869003905560008681526013602052604081209091018054869290610df39084906140c4565b9091555050604051848152859087907fecf7a2a9b87e864721b005a74148c7e41af15fa580f04024f55a5902b32e556e9060200160405180910390a3505050505050565b610e413382612cc2565b610e5d5760405162461bcd60e51b8152600401610ca9906140e4565b610d4a838383612d40565b6000610e73836116ee565b8210610ed55760405162461bcd60e51b815260206004820152602b60248201527f455243373231456e756d657261626c653a206f776e657220696e646578206f7560448201526a74206f6620626f756e647360a81b6064820152608401610ca9565b506001600160a01b03919091166000908152600660209081526040808320938352929052205490565b6000816007610f0e823383611774565b610f2f57818160405163acb8d02d60e01b8152600401610ca992919061409a565b600084815260136020526040812060040154859160ff90911615159003610f6c57604051632080e3d360e01b815260048101829052602401610ca9565b6000858152601560209081526040808320600e54845290915290205460ff1615610fb757600e54604051636bd4745f60e01b8152610ca9918791600401918252602082015260400190565b6000858152601560209081526040808320600e5484528252808320805460ff1916600190811790915588845260138352818420825160a0810184528154815291810154938201939093526002830154918101919091526003820154606082015260049091015460ff16151560808201529080611038655af3107a4000612eb1565b90506000600c54131561105c57611055600c548460000151612f46565b9150611081565b600061106e600c548560000151612f8b565b909350905061107d8183614131565b9150505b818360200181815161109391906140c4565b9052506110a183898361306b565b600088815260136020908152604091829020855181558582015160018201558583015160028201556060860151600382015560808601516004909101805460ff1916911515919091179055905183815289917f80d2137c01c20957d2640ac104067c27bdfb6f6405d354a50e4e0663dbfd3406910160405180910390a2509695505050505050565b610d4a83838360405180602001604052806000815250611e41565b600061114f60085490565b82106111b25760405162461bcd60e51b815260206004820152602c60248201527f455243373231456e756d657261626c653a20676c6f62616c20696e646578206f60448201526b7574206f6620626f756e647360a01b6064820152608401610ca9565b600882815481106111c5576111c5614144565b90600052602060002001549050919050565b60008160026111e7823383611774565b61120857818160405163acb8d02d60e01b8152600401610ca992919061409a565b600084815260136020526040812060040154859160ff9091161515900361124557604051632080e3d360e01b815260048101829052602401610ca9565b600085815260166020526040812043905561125f346130e5565b90508060136000888152602001908152602001600020600101600082825461128791906140c4565b909155505060405181815286907ff99ef896dbec5c9f8ed65fcd703b977e36f533d2dbe0f54b055724102c66935b9060200160405180910390a295945050505050565b60608167ffffffffffffffff8111156112e5576112e5613eaf565b60405190808252806020026020018201604052801561130e578160200160208202803683370190505b509050836001600160a01b0316611324866115cf565b6001600160a01b0316036113795760005b8281101561137357600182828151811061135157611351614144565b911515602092830291909101909101528061136b8161415a565b915050611335565b50611452565b60008581526014602090815260408083206001600160a01b0388168452825280832081518083018352905460ff8116825261010090046001600160f81b0316818401819052898552601390935292206003015410156114505760005b8381101561144e576114128585838181106113f2576113f2614144565b90506020020160208101906114079190614173565b835160ff169061310a565b1561143c57600183828151811061142b5761142b614144565b911515602092830291909101909101525b806114468161415a565b9150506113d5565b505b505b949350505050565b6000828152601360209081526040808320815160a081018352815481526001820154938101849052600282015492810192909252600381015460608301526004015460ff16151560808201529181126114c957604051634fd4b9f760e01b815260048101859052602401610ca9565b60006114d4346130e5565b90506114e28260001961418e565b81121561150557604051630e874cb160e41b815260048101829052602401610ca9565b61151f838661151a66016bcc41e90000612eb1565b61306b565b808360200181815161153191906140c4565b905250600085815260136020908152604091829020855181559085015160018201559084015160028201556060840151600382015560808401516004909101805460ff191691151591909117905561159261158b866115cf565b8587612d40565b60405185906001600160a01b038616907fa5ee7a2b0254fce91deed604506790ed7fa072d0b14cba4859c3bc8955b9caac90600090a35050505050565b6000818152600260205260408120546001600160a01b031680610b765760405162461bcd60e51b8152602060048201526018602482015277115490cdcc8c4e881a5b9d985b1a59081d1bdad95b88125160421b6044820152606401610ca9565b60008061163b346130e5565b90507f000000000000000000000000000000000000000000000000000000000000000081121561168157604051633e0432ef60e01b815260048101829052602401610ca9565b60008061168d85613137565b602081810195865260016080830181815260008581526013909352604092839020845181559751918801919091559082015160028701556060909101516003860155516004909401805460ff19169415159490941790935550909392505050565b60006001600160a01b0382166117585760405162461bcd60e51b815260206004820152602960248201527f4552433732313a2061646472657373207a65726f206973206e6f7420612076616044820152683634b21037bbb732b960b91b6064820152608401610ca9565b506001600160a01b031660009081526003602052604090205490565b6000826001600160a01b0316611789856115cf565b6001600160a01b03160361179f57506001611824565b60008481526014602090815260408083206001600160a01b038716845282529182902082518084019093525460ff81168084526101009091046001600160f81b0316918301919091526117f2908461310a565b8015611820575080602001516001600160f81b03166013600087815260200190815260200160002060030154105b9150505b9392505050565b806001611839823383611774565b61185a57818160405163acb8d02d60e01b8152600401610ca992919061409a565b600083815260136020526040812060040154849160ff9091161515900361189757604051632080e3d360e01b815260048101829052602401610ca9565b600084815260136020526040902060020154156118ca576040516339d0e29960e01b815260048101859052602401610ca9565b600084815260136020526040812060010154136118fd57604051632449a18d60e01b815260048101859052602401610ca9565b60008481526013602052604090819020600401805460ff19169055517fed48e4e899b34abded07dd8f092a22585a3fdec7db6b83f3927af165bf04cb1e906119489086815260200190565b60405180910390a150505050565b8233611961826115cf565b6001600160a01b03161461198b5760405163d64dfb0160e01b815260048101829052602401610ca9565b4360005b83811015611a6b5760008585838181106119ab576119ab614144565b90506020028101906119bd91906141be565b6119c6906141de565b90508060200151516000036119fe57600087815260146020908152604080832084516001600160a01b03168452909152812055611a62565b6040518060400160405280611a168360200151613245565b60ff90811682526001600160f81b0380871660209384015260008b815260148452604080822087516001600160a01b031683528552902084519490930151166101000292169190911790555b5060010161198f565b507f5015559e4f379aa0dd2effee572c916b09bb68ed41ad9ab127c8066f052e1643858585604051611a9f939291906142a6565b60405180910390a15050505050565b606060018054610b8b9061402e565b611ac8338383613293565b5050565b600081815260136020526040812060040154829060ff1615158203611b0757604051632080e3d360e01b815260048101829052602401610ca9565b601754604080516318160ddd60e01b815290516000926001600160a01b0316916318160ddd9160048083019260209291908290030181865afa158015611b51573d6000803e3d6000fd5b505050506040513d601f19601f82011682018060405250810190611b7591906143b6565b905080600003611b9857604051632a8ef6b160e11b815260040160405180910390fd5b7f0000000000000000000000000000000000000000000000000000000000000000601254611bc69190614131565b421015611be6576040516334490f5560e11b815260040160405180910390fd5b6000611bf0613361565b90506000611c0d600b5483611c0591906143cf565b600b546133d9565b90506000611c1a826133fd565b90507f0000000000000000000000000000000000000000000000000000000000000000811015611c605760405163e746612160e01b815260048101839052602401610ca9565b42601255600b839055600e8054600f55439055600c54600d55611c8b611c8585613414565b8361347e565b600c55600087815260136020908152604091829020825160a081018452815481526001820154928101929092526002810154928201929092526003820154606082015260049091015460ff1615156080820152611cfc818961151a611cf78666016bcc41e90000614131565b612eb1565b600088815260136020908152604091829020835181558382015160018201558383015160028201556060840151600382015560808401516004909101805460ff191691151591909117905590518981527fff14d8520387b9b85d2a017dc41ae15db04a22d4c67deac04eb45048631ffa86910160405180910390a1600c54965050505050505b50919050565b806000611d96823383611774565b611db757818160405163acb8d02d60e01b8152600401610ca992919061409a565b600083815260136020526040902060040154839060ff161515600103611df3576040516307e1313160e11b815260048101829052602401610ca9565b60008481526013602052604090819020600401805460ff19166001179055517f3ec796be1be7d03bff3a62b9fa594a60e947c1809bced06d929f145308ae57ce906119489086815260200190565b611e4b3383612cc2565b611e675760405162461bcd60e51b8152600401610ca9906140e4565b611e73848484846134a3565b50505050565b6060611e8482612bf2565b6000611e9b60408051602081019091526000815290565b90506000815111611ebb5760405180602001604052806000815250611824565b80611ec5846134d6565b604051602001611ed69291906143f6565b6040516020818303038152906040529392505050565b6000600a54600114611f2d5760405162461bcd60e51b815260206004820152600a6024820152695245454e5452414e435960b01b6044820152606401610ca9565b6002600a55836006611f40823383611774565b611f6157818160405163acb8d02d60e01b8152600401610ca992919061409a565b600086815260136020526040812060040154879160ff90911615159003611f9e57604051632080e3d360e01b815260048101829052602401610ca9565b60008781526013602052604090206002810154861115611fd457604051630b32a9c760e21b815260048101879052602401610ca9565b6002810180548790039055601754604051632770a7eb60e21b8152336004820152602481018890526001600160a01b0390911690639dc29fac90604401600060405180830381600087803b15801561202b57600080fd5b505af115801561203f573d6000803e3d6000fd5b505050506000612055612050613361565b613569565b612063886305f5e100614425565b61206d919061443c565b90506000886001600160a01b03168260405160006040518083038185875af1925050503d80600081146120bc576040519150601f19603f3d011682016040523d82523d6000602084013e6120c1565b606091505b50509050806120ec57604051637eaf0ff960e11b815233600482015260248101839052604401610ca9565b6040518881528a9033907ff3a670cd3af7d64b488926880889d08a8585a138ff455227af6737339a1ec2629060200160405180910390a3506001600a5598975050505050505050565b600082815260136020526040812060040154839060ff161515820361217057604051632080e3d360e01b815260048101829052602401610ca9565b600083815260136020526040812060040154849160ff909116151590036121ad57604051632080e3d360e01b815260048101829052602401610ca9565b6000858152601560209081526040808320600f54845290915290205460ff16156121f857600f54604051630cff449b60e21b8152610ca9918791600401918252602082015260400190565b6001601560008781526020019081526020016000206000600f54815260200190815260200160002060006101000a81548160ff0219169083151502179055506000601360008781526020019081526020016000206040518060a0016040529081600082015481526020016001820154815260200160028201548152602001600382015481526020016004820160009054906101000a900460ff16151515158152505090506000601360008781526020019081526020016000206040518060a0016040529081600082015481526020016001820154815260200160028201548152602001600382015481526020016004820160009054906101000a900460ff1615151515815250509050600080600d5413156123955761231d600d548460000151612f46565b90506123428161233d670853a0d2313c0000670de0b6b3a76400006143cf565b61347e565b8360200181815161235391906140c4565b90525061236881670853a0d2313c000061347e565b8260200181815161237991906140c4565b905250612390828861151a65b5e620f48000612eb1565b6123e5565b60006123a7600d548560000151612f8b565b60208601805192945090925083916123c09083906140c4565b9052506123ce848a8361306b565b6123e3838961151a660110d9316ec000612eb1565b505b82601360008a81526020019081526020016000206000820151816000015560208201518160010155604082015181600201556060820151816003015560808201518160040160006101000a81548160ff02191690831515021790555090505081601360008981526020019081526020016000206000820151816000015560208201518160010155604082015181600201556060820151816003015560808201518160040160006101000a81548160ff02191690831515021790555090505086887f0e7d191e2306ac0b4fbf5a2cb60c28ddb5a0507bd6dc06322d0d1ea0925eabd7836040516124d691815260200190565b60405180910390a3945050505b505092915050565b8160036124f9823383611774565b61251a57818160405163acb8d02d60e01b8152600401610ca992919061409a565b600084815260136020526040812060040154859160ff9091161515900361255757604051632080e3d360e01b815260048101829052602401610ca9565b600085815260166020908152604080832043905560139091529020600281015485111561259a57604051630b32a9c760e21b815260048101869052602401610ca9565b60028101805486900390556125ae85613414565b8160010160008282546125c191906140c4565b90915550506017546040516323b872dd60e01b8152336004820152306024820152604481018790526000916001600160a01b0316906323b872dd906064016020604051808303816000875af115801561261e573d6000803e3d6000fd5b505050506040513d601f19601f82011682018060405250810190612642919061445e565b90508061264e57600080fd5b601754604051632770a7eb60e21b8152306004820152602481018890526001600160a01b0390911690639dc29fac90604401600060405180830381600087803b15801561269a57600080fd5b505af11580156126ae573d6000803e3d6000fd5b50505050867f06da3309189fa49284f335d2c2bcb4cb0b8ad2a59ad92a9bdebeeb8f1ceba511876040516126e491815260200190565b60405180910390a250505050505050565b826005612703823383611774565b61272457818160405163acb8d02d60e01b8152600401610ca992919061409a565b600085815260136020526040812060040154869160ff9091161515900361276157604051632080e3d360e01b815260048101829052602401610ca9565b6000868152601660205260409020544390036127925760405163194af33f60e21b8152436004820152602401610ca9565b600086815260136020526040902060018101546127ae86613414565b13156127d557806001015460405163689b65e960e11b8152600401610ca991815260200190565b60006127e2612050613361565b6127f06305f5e1004761443c565b6127fa9190614425565b9050600061288a87601760009054906101000a90046001600160a01b03166001600160a01b03166318160ddd6040518163ffffffff1660e01b8152600401602060405180830381865afa158015612855573d6000803e3d6000fd5b505050506040513d601f19601f8201168201806040525081019061287991906143b6565b6128839190614131565b83906135bb565b90506714d1120d7b1600008110156128b85760405163f51aaf6560e01b815260048101829052602401610ca9565b60006128c360085490565b6128cd908461443c565b905060008885600201546128e19190614131565b90508181111561290757604051630dd16eb960e41b815260048101839052602401610ca9565b61291089613414565b600186018054919091039055600285018190556017546040516340c10f1960e01b81526001600160a01b038c81166004830152602482018c9052909116906340c10f1990604401600060405180830381600087803b15801561297157600080fd5b505af1158015612985573d6000803e3d6000fd5b50505050896001600160a01b03168b7fcf7d23a3cbe4e8b36ff82fd1b05b1b17373dc7804b4ebbd6e2356716ef2023728b6040516129c591815260200190565b60405180910390a35050505050505050505050565b6129e684848484612b1a565b6001811115612a555760405162461bcd60e51b815260206004820152603560248201527f455243373231456e756d657261626c653a20636f6e7365637574697665207472604482015274185b9cd9995c9cc81b9bdd081cdd5c1c1bdc9d1959605a1b6064820152608401610ca9565b816001600160a01b038516612ab157612aac81600880546000838152600960205260408120829055600182018355919091527ff3f7a9fe364faab93b216da50a3214154f22a0a2b415b23a84c8169e8b636ee30155565b612ad4565b836001600160a01b0316856001600160a01b031614612ad457612ad485826135d0565b6001600160a01b038416612af057612aeb8161366d565b612b13565b846001600160a01b0316846001600160a01b031614612b1357612b13848261371c565b5050505050565b6001811115611e73576001600160a01b03841615612b60576001600160a01b03841660009081526003602052604081208054839290612b5a90849061447b565b90915550505b6001600160a01b03831615611e73576001600160a01b03831660009081526003602052604081208054839290612b97908490614131565b909155505050505050565b60006001600160e01b031982166380ac58cd60e01b1480612bd357506001600160e01b03198216635b5e139f60e01b145b80610b7657506301ffc9a760e01b6001600160e01b0319831614610b76565b6000818152600260205260409020546001600160a01b0316612c515760405162461bcd60e51b8152602060048201526018602482015277115490cdcc8c4e881a5b9d985b1a59081d1bdad95b88125160421b6044820152606401610ca9565b50565b600081815260046020526040902080546001600160a01b0319166001600160a01b0384169081179091558190612c89826115cf565b6001600160a01b03167f8c5be1e5ebec7d5bd14f71427d1e84f3dd0314c0f7b2291e5b200ac8c7c3b92560405160405180910390a45050565b600080612cce836115cf565b9050806001600160a01b0316846001600160a01b03161480612d1557506001600160a01b0380821660009081526005602090815260408083209388168352929052205460ff165b806114525750836001600160a01b0316612d2e84610c0e565b6001600160a01b031614949350505050565b826001600160a01b0316612d53826115cf565b6001600160a01b031614612d795760405162461bcd60e51b8152600401610ca99061448e565b6001600160a01b038216612ddb5760405162461bcd60e51b8152602060048201526024808201527f4552433732313a207472616e7366657220746f20746865207a65726f206164646044820152637265737360e01b6064820152608401610ca9565b612de88383836001613760565b826001600160a01b0316612dfb826115cf565b6001600160a01b031614612e215760405162461bcd60e51b8152600401610ca99061448e565b600081815260046020908152604080832080546001600160a01b03199081169091556001600160a01b0387811680865260038552838620805460001901905590871680865283862080546001019055868652600290945282852080549092168417909155905184937fddf252ad1be2c89b69c2b068fc378daa952ba7f163c4a11628f55a4df523b3ef91a4505050565b6000662386f26fc10000612f3c83601760009054906101000a90046001600160a01b03166001600160a01b03166318160ddd6040518163ffffffff1660e01b8152600401602060405180830381865afa158015612f12573d6000803e3d6000fd5b505050506040513d601f19601f82011682018060405250810190612f3691906143b6565b90613786565b610b76919061443c565b600080612f5e601054846135bb90919063ffffffff16565b90506000841215612f7e57612f7b81670de0b6b3a764000061447b565b90505b6114528461233d83613414565b6000806000612fa5601154856135bb90919063ffffffff16565b90506000612fbe601054866135bb90919063ffffffff16565b90506000612fcc83836135bb565b90506000612fe284670de0b6b3a764000061447b565b9050600061301e61301984612ff660085490565b61300890670de0b6b3a7640000614425565b613012919061447b565b84906135bb565b613414565b9050600061302c828b61347e565b905060006130438761303d846133fd565b906135bb565b905081613058670de0b6b3a76400008361443c565b98509850505050505050505b9250929050565b808360000181815161307d9190614131565b905250601154835111156130915782516011555b80601060008282546130a39190614131565b909155505060105460405190815282907fbed79548735be4d252e30687e5817f81bb3a0166f8f2656f162b2fd746c53ae19060200160405180910390a2505050565b60006130ef613361565b6131006130196305f5e1008561443c565b610b76919061418e565b60008082600781111561311f5761311f614062565b600160ff9182161b9490941690931615159392505050565b600061316d6040518060a00160405280600081526020016000815260200160008152602001600081526020016000151581525090565b600061317860085490565b90507f000000000000000000000000000000000000000000000000000000000000000081106131ba5760405163794bb39b60e01b815260040160405180910390fd5b6131c4848261379b565b6131f86040518060a00160405280600081526020016000815260200160008152602001600081526020016000151581525090565b61320581836103e861306b565b60405182906001600160a01b038716907f30385c845b448a36257a6a1716e6ad2e1bc2cbe333cde1e69fe849ad6511adfe90600090a39094909350915050565b6000805b8251811015611d825782818151811061326457613264614144565b6020026020010151600781111561327d5761327d614062565b600160ff9190911681901b929092179101613249565b816001600160a01b0316836001600160a01b0316036132f45760405162461bcd60e51b815260206004820152601960248201527f4552433732313a20617070726f766520746f2063616c6c6572000000000000006044820152606401610ca9565b6001600160a01b03838116600081815260056020908152604080832094871680845294825291829020805460ff191686151590811790915591519182527f17307eab39ab6107e8899845ad3d59bd9653f200f220920489ca2b5937696c31910160405180910390a3505050565b60185460408051633fabe5a360e21b815290516000926001600160a01b03169163feaf968c9160048083019260a09291908290030181865afa1580156133ab573d6000803e3d6000fd5b505050506040513d601f19601f820116820180604052508101906133cf91906144ed565b5091949350505050565b670de0b6b3a76400008281029081058314821515166133f757600080fd5b05919050565b6000808212156134105781600003610b76565b5090565b60006001600160ff1b038211156134105760405162461bcd60e51b815260206004820152602860248201527f53616665436173743a2076616c756520646f65736e27742066697420696e2061604482015267371034b73a191a9b60c11b6064820152608401610ca9565b818102821583820583141761349257600080fd5b670de0b6b3a7640000900592915050565b6134ae848484612d40565b6134ba84848484613934565b611e735760405162461bcd60e51b8152600401610ca99061453d565b606060006134e383613a32565b600101905060008167ffffffffffffffff81111561350357613503613eaf565b6040519080825280601f01601f19166020018201604052801561352d576020820181803683370190505b5090508181016020015b600019016f181899199a1a9b1b9c1cb0b131b232b360811b600a86061a8153600a850494508461353757509392505050565b6000808212156134105760405162461bcd60e51b815260206004820181905260248201527f53616665436173743a2076616c7565206d75737420626520706f7369746976656044820152606401610ca9565b600061182483670de0b6b3a764000084613b0a565b600060016135dd846116ee565b6135e7919061447b565b60008381526007602052604090205490915080821461363a576001600160a01b03841660009081526006602090815260408083208584528252808320548484528184208190558352600790915290208190555b5060009182526007602090815260408084208490556001600160a01b039094168352600681528383209183525290812055565b60085460009061367f9060019061447b565b600083815260096020526040812054600880549394509092849081106136a7576136a7614144565b9060005260206000200154905080600883815481106136c8576136c8614144565b60009182526020808320909101929092558281526009909152604080822084905585825281205560088054806137005761370061458f565b6001900381819060005260206000200160009055905550505050565b6000613727836116ee565b6001600160a01b039093166000908152600660209081526040808320868452825280832085905593825260079052919091209190915550565b61376c848484846129da565b506000908152601360205260409020436003909101555050565b60006118248383670de0b6b3a7640000613b0a565b6001600160a01b0382166137f15760405162461bcd60e51b815260206004820181905260248201527f4552433732313a206d696e7420746f20746865207a65726f20616464726573736044820152606401610ca9565b6000818152600260205260409020546001600160a01b0316156138565760405162461bcd60e51b815260206004820152601c60248201527f4552433732313a20746f6b656e20616c7265616479206d696e746564000000006044820152606401610ca9565b613864600083836001613760565b6000818152600260205260409020546001600160a01b0316156138c95760405162461bcd60e51b815260206004820152601c60248201527f4552433732313a20746f6b656e20616c7265616479206d696e746564000000006044820152606401610ca9565b6001600160a01b038216600081815260036020908152604080832080546001019055848352600290915280822080546001600160a01b0319168417905551839291907fddf252ad1be2c89b69c2b068fc378daa952ba7f163c4a11628f55a4df523b3ef908290a45050565b60006001600160a01b0384163b15613a2a57604051630a85bd0160e11b81526001600160a01b0385169063150b7a02906139789033908990889088906004016145a5565b6020604051808303816000875af19250505080156139b3575060408051601f3d908101601f191682019092526139b0918101906145e2565b60015b613a10573d8080156139e1576040519150601f19603f3d011682016040523d82523d6000602084013e6139e6565b606091505b508051600003613a085760405162461bcd60e51b8152600401610ca99061453d565b805181602001fd5b6001600160e01b031916630a85bd0160e11b149050611452565b506001611452565b60008072184f03e93ff9f4daa797ed6e38ed64bf6a1f0160401b8310613a715772184f03e93ff9f4daa797ed6e38ed64bf6a1f0160401b830492506040015b6d04ee2d6d415b85acef81000000008310613a9d576d04ee2d6d415b85acef8100000000830492506020015b662386f26fc100008310613abb57662386f26fc10000830492506010015b6305f5e1008310613ad3576305f5e100830492506008015b6127108310613ae757612710830492506004015b60648310613af9576064830492506002015b600a8310610b765760010192915050565b6000826000190484118302158202613b2157600080fd5b5091020490565b60008060408385031215613b3b57600080fd5b50508035926020909101359150565b6001600160e01b031981168114612c5157600080fd5b600060208284031215613b7257600080fd5b813561182481613b4a565b60005b83811015613b98578181015183820152602001613b80565b50506000910152565b60008151808452613bb9816020860160208601613b7d565b601f01601f19169290920160200192915050565b6020815260006118246020830184613ba1565b600060208284031215613bf257600080fd5b5035919050565b80356001600160a01b0381168114613c1057600080fd5b919050565b60008060408385031215613c2857600080fd5b613c3183613bf9565b946020939093013593505050565b600080600060608486031215613c5457600080fd5b505081359360208301359350604090920135919050565b600080600060608486031215613c8057600080fd5b613c8984613bf9565b9250613c9760208501613bf9565b9150604084013590509250925092565b60008060408385031215613cba57600080fd5b82359150613cca60208401613bf9565b90509250929050565b60008083601f840112613ce557600080fd5b50813567ffffffffffffffff811115613cfd57600080fd5b6020830191508360208260051b850101111561306457600080fd5b60008060008060608587031215613d2e57600080fd5b84359350613d3e60208601613bf9565b9250604085013567ffffffffffffffff811115613d5a57600080fd5b613d6687828801613cd3565b95989497509550505050565b6020808252825182820181905260009190848201906040850190845b81811015613dac578351151583529284019291840191600101613d8e565b50909695505050505050565b600060208284031215613dca57600080fd5b61182482613bf9565b803560088110613c1057600080fd5b600080600060608486031215613df757600080fd5b83359250613e0760208501613bf9565b9150613e1560408501613dd3565b90509250925092565b600080600060408486031215613e3357600080fd5b83359250602084013567ffffffffffffffff811115613e5157600080fd5b613e5d86828701613cd3565b9497909650939450505050565b8015158114612c5157600080fd5b60008060408385031215613e8b57600080fd5b613e9483613bf9565b91506020830135613ea481613e6a565b809150509250929050565b634e487b7160e01b600052604160045260246000fd5b6040805190810167ffffffffffffffff81118282101715613ee857613ee8613eaf565b60405290565b604051601f8201601f1916810167ffffffffffffffff81118282101715613f1757613f17613eaf565b604052919050565b60008060008060808587031215613f3557600080fd5b613f3e85613bf9565b93506020613f4d818701613bf9565b935060408601359250606086013567ffffffffffffffff80821115613f7157600080fd5b818801915088601f830112613f8557600080fd5b813581811115613f9757613f97613eaf565b613fa9601f8201601f19168501613eee565b91508082528984828501011115613fbf57600080fd5b808484018584013760008482840101525080935050505092959194509250565b600080600060608486031215613ff457600080fd5b83359250613c9760208501613bf9565b6000806040838503121561401757600080fd5b61402083613bf9565b9150613cca60208401613bf9565b600181811c9082168061404257607f821691505b602082108103611d8257634e487b7160e01b600052602260045260246000fd5b634e487b7160e01b600052602160045260246000fd5b6008811061409657634e487b7160e01b600052602160045260246000fd5b9052565b828152604081016118246020830184614078565b634e487b7160e01b600052601160045260246000fd5b80820182811260008312801582168215821617156124e3576124e36140ae565b6020808252602d908201527f4552433732313a2063616c6c6572206973206e6f7420746f6b656e206f776e6560408201526c1c881bdc88185c1c1c9bdd9959609a1b606082015260800190565b80820180821115610b7657610b766140ae565b634e487b7160e01b600052603260045260246000fd5b60006001820161416c5761416c6140ae565b5060010190565b60006020828403121561418557600080fd5b61182482613dd3565b80820260008212600160ff1b841416156141aa576141aa6140ae565b8181058314821517610b7657610b766140ae565b60008235603e198336030181126141d457600080fd5b9190910192915050565b6000604082360312156141f057600080fd5b6141f8613ec5565b61420183613bf9565b815260208084013567ffffffffffffffff8082111561421f57600080fd5b9085019036601f83011261423257600080fd5b81358181111561424457614244613eaf565b8060051b9150614255848301613eee565b818152918301840191848101903684111561426f57600080fd5b938501935b838510156142945761428585613dd3565b82529385019390850190614274565b94860194909452509295945050505050565b8381526040602080830182905282820184905260009190606090818501600587811b8701840189875b8a8110156143a557898303605f190185528135368d9003603e190181126142f557600080fd5b8c018389016001600160a01b0361430b83613bf9565b16855287820135601e1983360301811261432457600080fd5b90910187810191903567ffffffffffffffff81111561434257600080fd5b80871b360383131561435357600080fd5b8589018b9052908190526000908986015b818310156143905761437e8161437986613dd3565b614078565b92890192600192909201918901614364565b978901979550505091860191506001016142cf565b50909b9a5050505050505050505050565b6000602082840312156143c857600080fd5b5051919050565b81810360008312801583831316838312821617156143ef576143ef6140ae565b5092915050565b60008351614408818460208801613b7d565b83519083019061441c818360208801613b7d565b01949350505050565b8082028115828204841417610b7657610b766140ae565b60008261445957634e487b7160e01b600052601260045260246000fd5b500490565b60006020828403121561447057600080fd5b815161182481613e6a565b81810381811115610b7657610b766140ae565b60208082526025908201527f4552433732313a207472616e736665722066726f6d20696e636f72726563742060408201526437bbb732b960d91b606082015260800190565b805169ffffffffffffffffffff81168114613c1057600080fd5b600080600080600060a0868803121561450557600080fd5b61450e866144d3565b9450602086015193506040860151925060608601519150614531608087016144d3565b90509295509295909350565b60208082526032908201527f4552433732313a207472616e7366657220746f206e6f6e20455243373231526560408201527131b2b4bb32b91034b6b83632b6b2b73a32b960711b606082015260800190565b634e487b7160e01b600052603160045260246000fd5b6001600160a01b03858116825284166020820152604081018390526080606082018190526000906145d890830184613ba1565b9695505050505050565b6000602082840312156145f457600080fd5b815161182481613b4a56fea26469706673582212202193ad48445184e5df4e975ecc32113fa4574e0ec65359c5bb2092c4cc04d68c64736f6c63430008110033",
    "linkReferences": {}
  },
  "methodIdentifiers": {
    "MAX_SUPPLY()": "32cb6b0c",
    "MIN_COLLATERIZATION_RATIO()": "35f2faf0",
    "MIN_MINT_DYAD_DEPOSIT()": "397b8024",
    "MIN_PRICE_CHANGE_BETWEEN_SYNC()": "e8101c1b",
    "MIN_TIME_BETWEEN_SYNC()": "0ba4ae30",
    "SNIPE_MINT_SHARE_REWARD()": "5982dc29",
    "XP_CLAIM_REWARD()": "c784cbe6",
    "XP_LIQUIDATION_REWARD()": "4b2ec8ee",
    "XP_MINT_REWARD()": "febb16df",
    "XP_NORM_FACTOR()": "c9e3d730",
    "XP_SNIPE_BURN_REWARD()": "4ddc77c8",
    "XP_SNIPE_MINT_REWARD()": "aadfdcc2",
    "XP_SYNC_REWARD()": "3295787f",
    "_idToBlockOfLastDeposit(uint256)": "e643ebac",
    "activate(uint256)": "b260c42a",
    "approve(address,uint256)": "095ea7b3",
    "balanceOf(address)": "70a08231",
    "claim(uint256)": "379607f5",
    "deactivate(uint256)": "916b9bef",
    "deposit(uint256,uint256)": "e2bbb158",
    "dyad()": "add95a51",
    "dyadDelta()": "265f63a1",
    "exchange(uint256)": "53556559",
    "getApproved(uint256)": "081812fc",
    "grant(uint256,(address,uint8[])[])": "95952619",
    "hasPermission(uint256,address,uint8)": "823abfd9",
    "hasPermissions(uint256,address,uint8[])": "551e123b",
    "idToClaimed(uint256,uint256)": "019e242e",
    "idToNft(uint256)": "483afb2d",
    "idToNftPermission(uint256,address)": "36416455",
    "isApprovedForAll(address,address)": "e985e9c5",
    "lastEthPrice()": "7038fc4e",
    "liquidate(uint256,address)": "5fae8b3d",
    "maxXp()": "413217b7",
    "mint(address)": "6a627842",
    "move(uint256,uint256,int256)": "1849c73a",
    "name()": "06fdde03",
    "ownerOf(uint256)": "6352211e",
    "prevDyadDelta()": "decb84dc",
    "prevSyncedBlock()": "e6446691",
    "redeem(uint256,address,uint256)": "d8780161",
    "safeTransferFrom(address,address,uint256)": "42842e0e",
    "safeTransferFrom(address,address,uint256,bytes)": "b88d4fde",
    "setApprovalForAll(address,bool)": "a22cb465",
    "snipe(uint256,uint256)": "de1eecb3",
    "supportsInterface(bytes4)": "01ffc9a7",
    "symbol()": "95d89b41",
    "sync(uint256)": "b1357bf9",
    "syncedBlock()": "d4912507",
    "timeOfLastSync()": "174c67e1",
    "tokenByIndex(uint256)": "4f6ccce7",
    "tokenOfOwnerByIndex(address,uint256)": "2f745c59",
    "tokenURI(uint256)": "c87b56dd",
    "totalSupply()": "18160ddd",
    "totalXp()": "10d4f96d",
    "transferFrom(address,address,uint256)": "23b872dd",
    "withdraw(uint256,address,uint256)": "e63697c8"
  },
  "id": 40
}