{
  "abi": [
    {
      "inputs": [
        {
          "internalType": "contract IDNft",
          "name": "_dNft",
          "type": "address"
        }
      ],
      "stateMutability": "nonpayable",
      "type": "constructor"
    },
    {
      "inputs": [],
      "name": "MissingPermission",
      "type": "error"
    },
    {
      "inputs": [
        {
          "internalType": "uint256",
          "name": "id",
          "type": "uint256"
        }
      ],
      "name": "NotNFTOwner",
      "type": "error"
    },
    {
      "inputs": [],
      "name": "RedemptionLimitReached",
      "type": "error"
    },
    {
      "inputs": [
        {
          "internalType": "uint256",
          "name": "id",
          "type": "uint256"
        },
        {
          "components": [
            {
              "internalType": "uint256",
              "name": "fee",
              "type": "uint256"
            },
            {
              "internalType": "uint256",
              "name": "redemptionLimit",
              "type": "uint256"
            }
          ],
          "internalType": "struct Redeemer.Position",
          "name": "position",
          "type": "tuple"
        }
      ],
      "name": "add",
      "outputs": [],
      "stateMutability": "nonpayable",
      "type": "function"
    },
    {
      "inputs": [
        {
          "internalType": "uint256",
          "name": "id",
          "type": "uint256"
        },
        {
          "internalType": "address",
          "name": "to",
          "type": "address"
        }
      ],
      "name": "claim",
      "outputs": [],
      "stateMutability": "nonpayable",
      "type": "function"
    },
    {
      "inputs": [],
      "name": "dNft",
      "outputs": [
        {
          "internalType": "contract IDNft",
          "name": "",
          "type": "address"
        }
      ],
      "stateMutability": "view",
      "type": "function"
    },
    {
      "inputs": [
        {
          "internalType": "uint256",
          "name": "",
          "type": "uint256"
        }
      ],
      "name": "idToPosition",
      "outputs": [
        {
          "internalType": "uint256",
          "name": "fee",
          "type": "uint256"
        },
        {
          "internalType": "uint256",
          "name": "redemptionLimit",
          "type": "uint256"
        }
      ],
      "stateMutability": "view",
      "type": "function"
    },
    {
      "inputs": [
        {
          "internalType": "uint256",
          "name": "id",
          "type": "uint256"
        },
        {
          "components": [
            {
              "internalType": "uint256",
              "name": "fee",
              "type": "uint256"
            },
            {
              "internalType": "uint256",
              "name": "redemptionLimit",
              "type": "uint256"
            }
          ],
          "internalType": "struct Redeemer.Position",
          "name": "position",
          "type": "tuple"
        }
      ],
      "name": "modify",
      "outputs": [],
      "stateMutability": "nonpayable",
      "type": "function"
    },
    {
      "inputs": [
        {
          "internalType": "uint256",
          "name": "id",
          "type": "uint256"
        },
        {
          "internalType": "uint256",
          "name": "amount",
          "type": "uint256"
        },
        {
          "internalType": "address",
          "name": "to",
          "type": "address"
        }
      ],
      "name": "redeem",
      "outputs": [],
      "stateMutability": "nonpayable",
      "type": "function"
    },
    {
      "inputs": [
        {
          "internalType": "uint256",
          "name": "id",
          "type": "uint256"
        }
      ],
      "name": "remove",
      "outputs": [],
      "stateMutability": "nonpayable",
      "type": "function"
    }
  ],
  "bytecode": {
    "object": "0x608060405234801561001057600080fd5b506040516109e13803806109e183398101604081905261002f91610054565b600080546001600160a01b0319166001600160a01b0392909216919091179055610084565b60006020828403121561006657600080fd5b81516001600160a01b038116811461007d57600080fd5b9392505050565b61094e806100936000396000f3fe608060405234801561001057600080fd5b506004361061007d5760003560e01c806345e34bfc1161005b57806345e34bfc146100da5780634cc82215146100ed578063c90d11b114610100578063ddd5e1b21461013c57600080fd5b8063049104e5146100825780630f5eea911461009757806312b8fc03146100c7575b600080fd5b6100956100903660046106f1565b61014f565b005b6000546100aa906001600160a01b031681565b6040516001600160a01b0390911681526020015b60405180910390f35b6100956100d536600461072a565b61031c565b6100956100e836600461072a565b6103dc565b6100956100fb366004610762565b610509565b61012761010e366004610762565b6001602081905260009182526040909120805491015482565b604080519283526020830191909152016100be565b61009561014a36600461077b565b6105bc565b60008381526001602081815260408084208151808301835281548152930154918301919091528254905163483afb2d60e01b8152600481018790529192916001600160a01b039091169063483afb2d9060240160a060405180830381865afa1580156101bf573d6000803e3d6000fd5b505050506040513d601f19601f820116820180604052508101906101e391906107c0565b905081602001518482604001516101fa9190610858565b1015610219576040516317147ba960e31b815260040160405180910390fd5b6000805460405163d878016160e01b815260048101889052306024820152604481018790526001600160a01b039091169063d8780161906064016020604051808303816000875af1158015610272573d6000803e3d6000fd5b505050506040513d601f19601f82011682018060405250810190610296919061086b565b83519091506000906102a990839061069d565b9050806002600089815260200190815260200160002060008282546102ce9190610884565b90915550506001600160a01b0385166108fc6102ea8385610858565b6040518115909202916000818181858888f19350505050158015610312573d6000803e3d6000fd5b5050505050505050565b6000546040516331a9108f60e11b815260048101849052839133916001600160a01b0390911690636352211e90602401602060405180830381865afa158015610369573d6000803e3d6000fd5b505050506040513d601f19601f8201168201806040525081019061038d9190610897565b6001600160a01b0316146103bc5760405163d64dfb0160e01b8152600481018290526024015b60405180910390fd5b506000918252600160208181526040909320823581559190920135910155565b6000546040516331a9108f60e11b815260048101849052839133916001600160a01b0390911690636352211e90602401602060405180830381865afa158015610429573d6000803e3d6000fd5b505050506040513d601f19601f8201168201806040525081019061044d9190610897565b6001600160a01b0316146104775760405163d64dfb0160e01b8152600481018290526024016103b3565b60005460405163823abfd960e01b81526001600160a01b039091169063823abfd9906104ac90869030906006906004016108bb565b602060405180830381865afa1580156104c9573d6000803e3d6000fd5b505050506040513d601f19601f820116820180604052508101906104ed91906108fd565b6103bc5760405162fe413760e61b815260040160405180910390fd5b6000546040516331a9108f60e11b815260048101839052829133916001600160a01b0390911690636352211e90602401602060405180830381865afa158015610556573d6000803e3d6000fd5b505050506040513d601f19601f8201168201806040525081019061057a9190610897565b6001600160a01b0316146105a45760405163d64dfb0160e01b8152600481018290526024016103b3565b50600090815260016020819052604082208281550155565b6000546040516331a9108f60e11b815260048101849052839133916001600160a01b0390911690636352211e90602401602060405180830381865afa158015610609573d6000803e3d6000fd5b505050506040513d601f19601f8201168201806040525081019061062d9190610897565b6001600160a01b0316146106575760405163d64dfb0160e01b8152600481018290526024016103b3565b600083815260026020526040808220829055516001600160a01b038416916108fc9181818181818888f19350505050158015610697573d6000803e3d6000fd5b50505050565b60006106b28383670de0b6b3a76400006106bb565b90505b92915050565b60008260001904841183021582026106d257600080fd5b5091020490565b6001600160a01b03811681146106ee57600080fd5b50565b60008060006060848603121561070657600080fd5b8335925060208401359150604084013561071f816106d9565b809150509250925092565b600080828403606081121561073e57600080fd5b833592506040601f198201121561075457600080fd5b506020830190509250929050565b60006020828403121561077457600080fd5b5035919050565b6000806040838503121561078e57600080fd5b8235915060208301356107a0816106d9565b809150509250929050565b805180151581146107bb57600080fd5b919050565b600060a082840312156107d257600080fd5b60405160a0810181811067ffffffffffffffff8211171561080357634e487b7160e01b600052604160045260246000fd5b806040525082518152602083015160208201526040830151604082015260608301516060820152610836608084016107ab565b60808201529392505050565b634e487b7160e01b600052601160045260246000fd5b818103818111156106b5576106b5610842565b60006020828403121561087d57600080fd5b5051919050565b808201808211156106b5576106b5610842565b6000602082840312156108a957600080fd5b81516108b4816106d9565b9392505050565b8381526001600160a01b038316602082015260608101600883106108ef57634e487b7160e01b600052602160045260246000fd5b826040830152949350505050565b60006020828403121561090f57600080fd5b6106b2826107ab56fea26469706673582212203d4ebe0407d8f24841de2a50d0c97262e86171f731b730fba9b4f62bfb369ced64736f6c63430008110033",
    "linkReferences": {}
  },
  "methodIdentifiers": {
    "add(uint256,(uint256,uint256))": "45e34bfc",
    "claim(uint256,address)": "ddd5e1b2",
    "dNft()": "0f5eea91",
    "idToPosition(uint256)": "c90d11b1",
    "modify(uint256,(uint256,uint256))": "12b8fc03",
    "redeem(uint256,uint256,address)": "049104e5",
    "remove(uint256)": "4cc82215"
  },
  "id": 40
}