{
  "abi": [
    {
      "inputs": [
        {
          "internalType": "contract IDNft",
          "name": "_dnft",
          "type": "address"
        },
        {
          "components": [
            {
              "internalType": "int256",
              "name": "fee",
              "type": "int256"
            },
            {
              "internalType": "uint256",
              "name": "feeCollector",
              "type": "uint256"
            },
            {
              "internalType": "uint256",
              "name": "maxClaimers",
              "type": "uint256"
            }
          ],
          "internalType": "struct IClaimer.Config",
          "name": "_config",
          "type": "tuple"
        }
      ],
      "stateMutability": "nonpayable",
      "type": "constructor"
    },
    {
      "inputs": [
        {
          "internalType": "uint256",
          "name": "id",
          "type": "uint256"
        }
      ],
      "name": "IdAlreadyInSet",
      "type": "error"
    },
    {
      "inputs": [
        {
          "internalType": "uint256",
          "name": "id",
          "type": "uint256"
        }
      ],
      "name": "IdNotInSet",
      "type": "error"
    },
    {
      "inputs": [
        {
          "internalType": "int256",
          "name": "fee",
          "type": "int256"
        }
      ],
      "name": "InvalidFee",
      "type": "error"
    },
    {
      "inputs": [],
      "name": "MissingPermissions",
      "type": "error"
    },
    {
      "inputs": [
        {
          "internalType": "uint256",
          "name": "id",
          "type": "uint256"
        }
      ],
      "name": "NotNFTOwner",
      "type": "error"
    },
    {
      "inputs": [],
      "name": "TooManyClaimers",
      "type": "error"
    },
    {
      "anonymous": false,
      "inputs": [
        {
          "indexed": true,
          "internalType": "uint256",
          "name": "id",
          "type": "uint256"
        }
      ],
      "name": "Added",
      "type": "event"
    },
    {
      "anonymous": false,
      "inputs": [],
      "name": "ClaimedAll",
      "type": "event"
    },
    {
      "anonymous": false,
      "inputs": [
        {
          "components": [
            {
              "internalType": "int256",
              "name": "fee",
              "type": "int256"
            },
            {
              "internalType": "uint256",
              "name": "feeCollector",
              "type": "uint256"
            },
            {
              "internalType": "uint256",
              "name": "maxClaimers",
              "type": "uint256"
            }
          ],
          "indexed": false,
          "internalType": "struct IClaimer.Config",
          "name": "_config",
          "type": "tuple"
        }
      ],
      "name": "ConfigSet",
      "type": "event"
    },
    {
      "anonymous": false,
      "inputs": [
        {
          "indexed": true,
          "internalType": "address",
          "name": "user",
          "type": "address"
        },
        {
          "indexed": true,
          "internalType": "address",
          "name": "newOwner",
          "type": "address"
        }
      ],
      "name": "OwnershipTransferred",
      "type": "event"
    },
    {
      "anonymous": false,
      "inputs": [
        {
          "indexed": true,
          "internalType": "uint256",
          "name": "id",
          "type": "uint256"
        }
      ],
      "name": "Removed",
      "type": "event"
    },
    {
      "inputs": [],
      "name": "MAX_FEE",
      "outputs": [
        {
          "internalType": "int256",
          "name": "",
          "type": "int256"
        }
      ],
      "stateMutability": "view",
      "type": "function"
    },
    {
      "inputs": [
        {
          "internalType": "uint256",
          "name": "id",
          "type": "uint256"
        }
      ],
      "name": "add",
      "outputs": [],
      "stateMutability": "nonpayable",
      "type": "function"
    },
    {
      "inputs": [],
      "name": "claimAll",
      "outputs": [],
      "stateMutability": "nonpayable",
      "type": "function"
    },
    {
      "inputs": [],
      "name": "config",
      "outputs": [
        {
          "internalType": "int256",
          "name": "fee",
          "type": "int256"
        },
        {
          "internalType": "uint256",
          "name": "feeCollector",
          "type": "uint256"
        },
        {
          "internalType": "uint256",
          "name": "maxClaimers",
          "type": "uint256"
        }
      ],
      "stateMutability": "view",
      "type": "function"
    },
    {
      "inputs": [
        {
          "internalType": "uint256",
          "name": "id",
          "type": "uint256"
        }
      ],
      "name": "contains",
      "outputs": [
        {
          "internalType": "bool",
          "name": "",
          "type": "bool"
        }
      ],
      "stateMutability": "view",
      "type": "function"
    },
    {
      "inputs": [],
      "name": "dNft",
      "outputs": [
        {
          "internalType": "contract IDNft",
          "name": "",
          "type": "address"
        }
      ],
      "stateMutability": "view",
      "type": "function"
    },
    {
      "inputs": [],
      "name": "owner",
      "outputs": [
        {
          "internalType": "address",
          "name": "",
          "type": "address"
        }
      ],
      "stateMutability": "view",
      "type": "function"
    },
    {
      "inputs": [
        {
          "internalType": "uint256",
          "name": "id",
          "type": "uint256"
        }
      ],
      "name": "remove",
      "outputs": [],
      "stateMutability": "nonpayable",
      "type": "function"
    },
    {
      "inputs": [
        {
          "components": [
            {
              "internalType": "int256",
              "name": "fee",
              "type": "int256"
            },
            {
              "internalType": "uint256",
              "name": "feeCollector",
              "type": "uint256"
            },
            {
              "internalType": "uint256",
              "name": "maxClaimers",
              "type": "uint256"
            }
          ],
          "internalType": "struct IClaimer.Config",
          "name": "_config",
          "type": "tuple"
        }
      ],
      "name": "setConfig",
      "outputs": [],
      "stateMutability": "nonpayable",
      "type": "function"
    },
    {
      "inputs": [
        {
          "internalType": "address",
          "name": "newOwner",
          "type": "address"
        }
      ],
      "name": "transferOwnership",
      "outputs": [],
      "stateMutability": "nonpayable",
      "type": "function"
    }
  ],
  "bytecode": {
    "object": "0x608060405234801561001057600080fd5b50604051610ec2380380610ec283398101604081905261002f916100aa565b600080546001600160a01b031916339081178255604051909182917f8be0079c531659141344cd1fd0a4f28419497f9722a3daafe3b4186f6b6457e0908290a350600380546001600160a01b0319166001600160a01b0393909316929092179091558051600455602081015160055560400151600655610145565b60008082840360808112156100be57600080fd5b83516001600160a01b03811681146100d557600080fd5b92506060601f19820112156100e957600080fd5b50604051606081016001600160401b038111828210171561011a57634e487b7160e01b600052604160045260246000fd5b8060405250602084015181526040840151602082015260608401516040820152809150509250929050565b610d6e806101546000396000f3fe608060405234801561001057600080fd5b506004361061009e5760003560e01c80638da5cb5b116100665780638da5cb5b1461013b578063bc063e1a1461014e578063c34052e01461016b578063d1058e591461018e578063f2fde38b1461019657600080fd5b80630f5eea91146100a35780631003e2d2146100d3578063195ae98a146100e85780634cc82215146100fb57806379502c551461010e575b600080fd5b6003546100b6906001600160a01b031681565b6040516001600160a01b0390911681526020015b60405180910390f35b6100e66100e1366004610a79565b6101a9565b005b6100e66100f6366004610ad9565b6102f4565b6100e6610109366004610a79565b6103c8565b60045460055460065461012092919083565b604080519384526020840192909252908201526060016100ca565b6000546100b6906001600160a01b031681565b61015d67016345785d8a000081565b6040519081526020016100ca565b61017e610179366004610a79565b610470565b60405190151581526020016100ca565b6100e6610483565b6100e66101a4366004610b4d565b61060b565b6003546040516331a9108f60e11b815260048101839052829133916001600160a01b0390911690636352211e90602401602060405180830381865afa1580156101f6573d6000803e3d6000fd5b505050506040513d601f19601f8201168201806040525081019061021a9190610b6a565b6001600160a01b0316146102495760405163d64dfb0160e01b8152600481018290526024015b60405180910390fd5b600654610256600161069f565b106102745760405163610e128f60e11b815260040160405180910390fd5b61027d826106a9565b61029a5760405163caeb6c7b60e01b815260040160405180910390fd5b6102a5600183610819565b6102c55760405163f503346b60e01b815260048101839052602401610240565b60405182907f64a55044d1f2eddebe1b90e8e2853e8e96931cefadbfa0b2ceb34bee3606194190600090a25050565b6000546001600160a01b0316331461033d5760405162461bcd60e51b815260206004820152600c60248201526b15539055551213d49256915160a21b6044820152606401610240565b805167016345785d8a00001261036c578051604051630d0de43f60e21b81526004810191909152602401610240565b80516004819055602080830180516005556040808501805160065581519485529151928401929092525182820152517f826f6d57ffc23208e9111faabc3b36f860a25b4557fbc1a88fea5dcbf3c3af6b9181900360600190a150565b6003546040516331a9108f60e11b815260048101839052829133916001600160a01b0390911690636352211e90602401602060405180830381865afa158015610415573d6000803e3d6000fd5b505050506040513d601f19601f820116820180604052508101906104399190610b6a565b6001600160a01b0316146104635760405163d64dfb0160e01b815260048101829052602401610240565b61046c8261082c565b5050565b600061047d600183610885565b92915050565b600061048f600161089d565b905060005b81518110156105de5760008282815181106104b1576104b1610b87565b602090810291909101015160035460405163379607f560e01b8152600481018390529192506001600160a01b03169063379607f5906024016020604051808303816000875af1925050508015610524575060408051601f3d908101601f1916820190925261052191810190610b9d565b60015b610536576105318161082c565b6105d5565b60008113156105d3576000610550826004600001546108aa565b905060008113156105d157600354600554604051630c24e39d60e11b8152600481018690526024810191909152604481018390526001600160a01b0390911690631849c73a90606401600060405180830381600087803b1580156105b357600080fd5b505af19250505080156105c4575060015b6105d1576105d18361082c565b505b505b50600101610494565b506040517f21747a3ae1713ff560d4ce92039c183894ac1acfa8867c8bfdaccddd7e6c9a5890600090a150565b6000546001600160a01b031633146106545760405162461bcd60e51b815260206004820152600c60248201526b15539055551213d49256915160a21b6044820152606401610240565b600080546001600160a01b0319166001600160a01b0383169081178255604051909133917f8be0079c531659141344cd1fd0a4f28419497f9722a3daafe3b4186f6b6457e09190a350565b600061047d825490565b604080516002808252606082018352600092839291906020830190803683370190505090506007816000815181106106e3576106e3610b87565b602002602001019060078111156106fc576106fc610bb6565b9081600781111561070f5761070f610bb6565b8152505060048160018151811061072857610728610b87565b6020026020010190600781111561074157610741610bb6565b9081600781111561075457610754610bb6565b90525060035460405163551e123b60e01b81526000916001600160a01b03169063551e123b9061078c90879030908790600401610bcc565b600060405180830381865afa1580156107a9573d6000803e3d6000fd5b505050506040513d6000823e601f3d908101601f191682016040526107d19190810190610c49565b9050806000815181106107e6576107e6610b87565b6020026020010151801561081157508060018151811061080857610808610b87565b60200260200101515b949350505050565b600061082583836108cf565b9392505050565b61083760018261091e565b610857576040516385896c6760e01b815260048101829052602401610240565b60405181907ffab782eee98387fe0d957b2964e6da22a6918f525952ccad107ae25db263cc1190600090a250565b60008181526001830160205260408120541515610825565b606060006108258361092a565b81810282158382058314176108be57600080fd5b670de0b6b3a7640000900592915050565b60008181526001830160205260408120546109165750815460018181018455600084815260208082209093018490558454848252828601909352604090209190915561047d565b50600061047d565b60006108258383610986565b60608160000180548060200260200160405190810160405280929190818152602001828054801561097a57602002820191906000526020600020905b815481526020019060010190808311610966575b50505050509050919050565b60008181526001830160205260408120548015610a6f5760006109aa600183610d01565b85549091506000906109be90600190610d01565b9050818114610a235760008660000182815481106109de576109de610b87565b9060005260206000200154905080876000018481548110610a0157610a01610b87565b6000918252602080832090910192909255918252600188019052604090208390555b8554869080610a3457610a34610d22565b60019003818190600052602060002001600090559055856001016000868152602001908152602001600020600090556001935050505061047d565b600091505061047d565b600060208284031215610a8b57600080fd5b5035919050565b634e487b7160e01b600052604160045260246000fd5b604051601f8201601f1916810167ffffffffffffffff81118282101715610ad157610ad1610a92565b604052919050565b600060608284031215610aeb57600080fd5b6040516060810181811067ffffffffffffffff82111715610b0e57610b0e610a92565b80604052508235815260208301356020820152604083013560408201528091505092915050565b6001600160a01b0381168114610b4a57600080fd5b50565b600060208284031215610b5f57600080fd5b813561082581610b35565b600060208284031215610b7c57600080fd5b815161082581610b35565b634e487b7160e01b600052603260045260246000fd5b600060208284031215610baf57600080fd5b5051919050565b634e487b7160e01b600052602160045260246000fd5b8381526001600160a01b038316602080830191909152606060408301819052835190830181905260009184810191608085019084805b82811015610c3a57855160088110610c2857634e487b7160e01b83526021600452602483fd5b84529484019492840192600101610c02565b50919998505050505050505050565b60006020808385031215610c5c57600080fd5b825167ffffffffffffffff80821115610c7457600080fd5b818501915085601f830112610c8857600080fd5b815181811115610c9a57610c9a610a92565b8060051b9150610cab848301610aa8565b8181529183018401918481019088841115610cc557600080fd5b938501935b83851015610cf557845192508215158314610ce55760008081fd5b8282529385019390850190610cca565b98975050505050505050565b8181038181111561047d57634e487b7160e01b600052601160045260246000fd5b634e487b7160e01b600052603160045260246000fdfea26469706673582212202cca2ede971027729fdba6d531dd215a154930cec5a4c893cc7116a8c9434a0264736f6c63430008110033",
    "linkReferences": {}
  },
  "methodIdentifiers": {
    "MAX_FEE()": "bc063e1a",
    "add(uint256)": "1003e2d2",
    "claimAll()": "d1058e59",
    "config()": "79502c55",
    "contains(uint256)": "c34052e0",
    "dNft()": "0f5eea91",
    "owner()": "8da5cb5b",
    "remove(uint256)": "4cc82215",
    "setConfig((int256,uint256,uint256))": "195ae98a",
    "transferOwnership(address)": "f2fde38b"
  },
  "id": 39
}